:020000040000FA
:1000000018F09FE518F09FE518F09FE518F09FE5C0
:1000100018F09FE50000A0E120F11FE518F09FE532
:1000200058000000400000004400000048000000AC
:100030004C000000000000005000000054000000D0
:10004000FEFFFFEAFEFFFFEAFEFFFFEAFEFFFFEA18
:10005000FEFFFFEAFEFFFFEA4C009FE5DBF021E335
:1000600000D0A0E1000040E2D7F021E300D0A0E101
:10007000000040E2D1F021E300D0A0E1000040E226
:10008000D2F021E300D0A0E1010C40E2D3F021E363
:1000900000D0A0E1080040E210F021E300D0A0E190
:1000A00001AB4DE204009FE510FF2FE1E01F00408F
:1000B0008B01000070B42D48826801239401AA21AD
:1000C0005522002C02DA0360C160C2600024046083
:1000D000C160C260264C256A202635432562256A08
:1000E0006D06FCD5214C8034E3600B254560C16072
:1000F000C2600360C160C2600523636083685B0106
:10010000FCD5836884685B045B0C2402240E0B2BF3
:1001100001D0002CFBD103230360C160C260816861
:100120008901FCD570BC70471048002180380160FF
:10013000032141600221016070470E480268FF21DF
:100140000A430260C2690A43C2617047704710B532
:1001500001F06AF8FFF7AEFF642001F091F8FFF7B5
:10016000E3FFFFF7EAFF10BC08BC184780C01FE0A0
:1001700080C11FE040C0FF3FFFF7E9FF00F011F82A
:1001800000F01DF800F0E8FCFAE700F04CFC002855
:1001900005D000F05DFC002801D000F041FCFFF725
:1001A000EBFF10B500F0E0FD10BC08BC184710B51F
:1001B00000F0D4FEF8E710B500F07DFFF4E710B5CD
:1001C00000F0EDFFF0E700007847C0460020B0E304
:1001D000203171E08404003AA03271E07904003AE1
:1001E000203471E06E04003A00C0A0E38D0400EA00
:1001F0000047000080BB00000000000044332211D3
:10020000491E084000D001207047704710B40022FA
:1002100002E0002B0BD0521C835C8C5CA342F8D014
:1002200018062106000E090E401A10BC7047002067
:10023000FBE730B40024220008E01D00303D092D0A
:100240000BD80A256C43521C303C1C19835C002BD4
:10025000F3D100200C6030BC70470120FBE770B583
:100260000D000021541E002829550DD13020641E98
:1002700028550DE0641E0A21FFF7A6FF092901D8C1
:10028000303100E037312955002C01D00028F1D160
:10029000281970BC08BC184708B5FF4846216A46B3
:1002A000FFF785FFFD48FFF786FFFB4846216A46BA
:1002B000FFF77DFFF949F848FFF7A8FF01B008BC38
:1002C0001847F0B51E0015000F000024002807D0C5
:1002D000FFF7AFFF002803D00C20F0BC08BC184784
:1002E000692D0DD038680421FFF78AFF00280FD050
:1002F000642D07D00D24672D06D0682D06D02BE085
:100300000020EAE7062427E0022425E0032423E076
:10031000396801208007814205D3E14A881990425B
:1003200001D8012000E0002001225203914206D3AF
:100330003F2289195203914201D8012100E0002196
:10034000662D02D0672D04D006E0084304D10E24A8
:1003500002E0002800D104242000BEE7D14A104763
:10036000602803D020380006000E70470020704738
:10037000F0B503000026007835009446FFF7F0FF43
:100380000400401E2C284ED85B1C4AE0032C26DBC0
:100390001878FFF7E5FF82005878FFF7E1FF0009C2
:1003A00002430A705878FFF7DBFF02019878FFF7E5
:1003B000D7FF800802434A709878FFF7D1FF820187
:1003C000D878FFF7CDFF02431006000E88700F7833
:1003D0004A788019ED1CBA181618C91C1FE0012CA8
:1003E0000DDB1878FFF7BCFF82005878FFF7B8FFE5
:1003F000000902431006000E6D1C86190870022CBD
:100400000DDB5878FFF7ACFF02019878FFF7A8FFE3
:10041000800802431006000E6D1C861948701B1DD3
:10042000E41E002CB2DC60460560300055E7002871
:1004300003D020300006000E704760207047F0B5F2
:10044000050010060026000EFFF7F1FF0870491C9A
:1004500027E0032A04DBAC786B782878A61929E01A
:10046000022A24D02B781C009E1928788008FFF7D8
:10047000DEFF087028788007870E18093818FFF704
:10048000D6FF48701807800EA309C018FFF7CFFFEA
:100490008870A006800EFFF7CAFFC870091DED1C0A
:1004A000D21E002AD5DC00200870300015E76B78DA
:1004B00028781C00C0188619D7E7F0B5764D85B0AE
:1004C0009435A868019B642201A9FFF7FAFE040095
:1004D0000ED16868019B67226946FFF7F2FE0400AF
:1004E000042802D0022C02D002E00E2400E00D24E9
:1004F0006D486E494068884205D1009801218907FE
:10050000884200D2132429680F222000FFF7A7FE9B
:10051000FFF751FE002C44D10025009F019E2C00C6
:100520003CE05D48462103AAFFF741FE002838D190
:10053000039800280DD058480099641C02AAFFF7C0
:1005400017FF451900990298091800910199081A96
:100550000190142C02D0019800281FD10020039094
:100560004D48462103AAFFF722FE03990029F7D040
:10057000002816D1484804A9FFF75BFE049885427D
:1005800004D14648009F019E0A3803E04348009783
:10059000C01F0196FFF70FFE0024250001980028D8
:1005A000BFDC05B099E6F0B53B4D85B09435A86841
:1005B000002364226946FFF784FE040006D16868C0
:1005C000009B662201A9FFF77CFE040029680F2228
:1005D000FFF745FEFFF7EFFD002CE2D10198002563
:1005E000009F2E00029032E02D2C00DD2D242A49A0
:1005F00001982200FFF723FF45192748FFF7DBFD8D
:100600000128CED10198761C001901900098001B9A
:10061000142E009001D0002819D11F490F22280064
:10062000FFF71DFEFFF7C7FD1B48462103AAFFF792
:10063000BEFD0028B5D1194917480A39FFF7E6FD74
:10064000002808D002980097019000263500009CF1
:10065000002CC9DCA5E70198009F0290F5E738B5AA
:1006600011480D4D00689435002801D00F240EE08C
:100670006868002366226946FFF723FE040006D15E
:10068000A8680078542821D0412800D00C240F22DB
:10069000696820000CE0000068000040821500003E
:1006A00000000140F1FFFF7F400000407856341207
:1006B000FFF7D5FDFFF77FFD002C04D100F0BFFD53
:1006C0000098FFF795FD38BC08BC18470098012139
:1006D00008430090DBE738B5FC4C002360686922D2
:1006E0006946FFF7EEFD002808D1F94A00999142CA
:1006F00003D1F84A0021116000E0102061680F2248
:10070000FFF7ADFDFFF757FDDDE770B5EF4D0023B7
:100710002E00143668686922311DFFF7D2FD2C00C7
:100720002834002820600FD12100A8680023692206
:100730000C39FFF7C6FD0028206005D1322030605B
:1007400021003000FFF70AFE696820680F22FFF7DA
:1007500086FDFFF730FD9CE5F8B5DE4FDB4E3968CE
:10076000706801290CD03500143500236922291D39
:10077000FFF7A7FD2C0014340028206004D015E0FA
:100780000F22010010002EE0D049B068002369223A
:100790001C31FFF796FD0028206007D1CB49F06897
:1007A000002369222031FFF78CFD2060CA49786858
:1007B000884207D1686803210903884202D21320C6
:1007C00020600DE0206800280AD133202860C3484B
:1007D000BE4900682831286108001438FFF7BEFDC3
:1007E000716820680F22FFF73AFDFFF7E4FCF8BCC0
:1007F00008BC1847F8B5B74FB44E3968706801297E
:100800000CD03400143400236922211DFFF759FD58
:10081000250014350028286004D00BE00F220100C9
:1008200010003BE0A949B068002369221C31FFF7A2
:1008300048FD2860AA4A78681321904202D0A94A4C
:10084000904207D16068022802D1A0681B280CD012
:10085000296018E0A04A904207D16068022804D1BC
:10086000A0681B2801D0296015E0286800280AD15B
:10087000342020609948954900682831E0600800DC
:100880001438FFF76BFD6068022804D1A0681B28AC
:1008900001D195487860716828680F22FFF7DFFC66
:1008A000FFF789FCA3E770B5884D00232E001436AE
:1008B00068686922311DFFF704FD2C0028340028E8
:1008C00020600FD12100A868002369220C39FFF7AE
:1008D000F8FC0028206005D1352030602100300070
:1008E000FFF73CFD696820680F22FFF7B8FCFFF7AF
:1008F00062FC206808281BD1764877494068884206
:1009000005D07749884202D07649884202D100203A
:100910006060A060696860680F22FFF7A0FCFFF7C5
:100920004AFC6968A0680F22FFF799FCFFF743FCB7
:10093000AFE470B5654D00232E0014366868692257
:10094000311DFFF7BEFC2C0028340028206019D18F
:100950002100A868002369220C39FFF7B2FC0028A7
:1009600020600FD12100E868002369220839FFF7D1
:10097000A8FC0028206005D138203060210030001C
:10098000FFF7ECFC696820680F22FFF768FCFFF7AF
:1009900012FC20680A2806D1696860680F22FFF7F8
:1009A0005EFCFFF708FC74E4FFB5844662461278EB
:1009B0000020099D04000300002A03D00022AD1E80
:1009C000AE4623E0002004B087E4039E451CB542F8
:1009D0001EDC6546AD5C202D08D0734506DA029E0C
:1009E0008700F6593555641C5B1C0EE06546AD1852
:1009F0006D78202D01D1734507D1029B86009B594C
:100A000000251D55401C2C002B00521C8A42DCDDA9
:100A1000401CD8E735490861704734494861704740
:100A2000012040030047294810B5352114300160EA
:100A300002214160816001001431FFF78FFC2348DF
:100A400028300068002800D0012010BC08BC1847DE
:100A500027480068000401D5012070470020704736
:100A600070B51A4D28682900007814310C004338FD
:100A70001434030000F072FD15606C636C126C6638
:100A8000183E6C696C6C5D6C0F6C6C156C0C6C00BA
:100A9000FFF713FD5FE6FFF786FD5CE6FFF7DFFD7E
:100AA00059E6FFF718FE56E6362008600749283158
:100AB00008001438FFF752FC696820680F22FFF71E
:100AC000CEFBFFF778FB696860682CE0FC00004013
:100AD0005A5A00004000004078563412F4010000D9
:100AE00021436587658721434433221100F0FFFFCE
:100AF000008002E037200860494908001438FFF7F9
:100B00002DFC696820680F22FFF7A9FBFFF753FB54
:100B1000207969680F22FFF7A2FBFFF74CFBA08842
:100B200069680004000E0F22FFF799FBFFF743FBF3
:100B300011E6FFF7EAFD0EE6FFF70EFE0BE6FFF704
:100B400059FE08E6FFF7AFFE05E6FFF7F2FE02E604
:100B50000F2269680120E7E7FEB5324D01202860C9
:100B60002F48324F763804004E3420600F306060DA
:100B70000F30A0600F30E0600F3020612A4801265E
:100B80000068686026484621BC3801AAFFF70FFBC1
:100B9000002841D17A218200A258401C05281170FA
:100BA000F9DB1F4A0F20283A009010000199052315
:100BB0009438FFF7F9FE0028E4D02168097852291B
:100BC0001ED047291CD04D291AD00022572919D0F0
:100BD000432917D00026164B6968994204D0B942C0
:100BE00002D0144B994201D1012A0DD0B94202D052
:100BF000104A914201D1012E06D0FFF731FFC1E723
:100C00000122E8E70126E6E761680F221320FFF7DB
:100C100026FBFFF7D0FAB5E7FEBC08BC184700007A
:100C20002401004040000040FC0100002143658792
:100C30007856341265872143FF2201321043F94A66
:100C40009062D162002005210904536BDB0702D0BA
:100C5000401C8842F9D37047F249FF300130886266
:100C6000012048620020052212044B6BDB0702D0F2
:100C7000401C9042F9D300204862086B0004000C2D
:100C80007047E94A91680888891C9160704710B5DF
:100C90000B00040006E0FFF7F4FF2080A41C9B1E5D
:100CA0001B041B0C012BF6D8002B02D0FFF7E9FF29
:100CB000207010BC08BC184710B40022835C8C5C08
:100CC000A34202D0002010BC7047521C062AF5DB5C
:100CD0000120F8E730B5D44D2878002813D0D34C44
:100CE00029001A31A01DFFF7E7FF002808D0A08CCB
:100CF000A988884203D1608CE988884203D000200B
:100D000030BC08BC18470120FAE7C74AD1688B1CE1
:100D10000880D360704730B50500C548491C0140C4
:100D20000C0004E02888AD1CFFF7EFFFA41E002C88
:100D3000F8D1E5E710B400220CE0012912D00388B5
:100D4000801C1C061B04240C1B0E1C43A218891EAD
:100D5000090409140029F0DC100C8018C0430004B9
:100D6000000CB0E70378EBE7F0B5AF48002505705D
:100D7000B04841680122920711434160AE48C16BFF
:100D8000AE4AAF48914201D1AE4900E0AE49816020
:100D9000C16809090901491DC160A24CCF200002A8
:100DA0002060AA4E3820306064277F1EFDD10220CB
:100DB000206030206060A6486061A6482061122053
:100DC000E060400130600121C9030020FFF734FFDB
:100DD0000020FFF741FF000404D501207F1C00051F
:100DE0008742F5D39C4820620020401C4028FCD359
:100DF000216A0120C0038143216265620220FFF75E
:100E00002BFF07000320FFF727FF894A39040E3A1A
:100E100010400143914881420FD103210903002072
:100E2000FFF70AFF00270120FFF716FF800604D412
:100E300001207F1C00058742F5D300271020FFF713
:100E40000BFFC10704D101217F1C09048F42F5D398
:100E500041070AD5626801210A43626031680122B4
:100E6000920211433160152100E01221A160800738
:100E700001D5A56102E0FF200130A06169487849F1
:100E800040300160774941607749816066480C21B4
:100E9000143001701D21417012218170E021C17058
:100EA0001F210171102141717049002078224243B5
:100EB0006F4BD318C20057183B606E4B401C7B60D1
:100EC0006A4BC033D21895601928D560EED3B16053
:100ED0006648C830F06018203061B5616449664FDB
:100EE0000020343978224243D319C20052181032FC
:100EF00028C282005218401C03289562F2D35C4835
:100F00002438F0615A480C38306202207062B562B1
:100F10005A48202101604848882141624449491CBF
:100F20008162306803210843306021680120014359
:100F300021603E4808217830017345214573817353
:100F4000D821C5738174F421C1740575802145755C
:100F500081751121C175F0BC08BC1847F7B50D00AB
:100F6000002600F077F9464941182F4801611CE03E
:100F700044493000761C88420DDD43480026416913
:100F8000090604D5C16980221143C16103E081696A
:100F90008022114381612448006900F05FF9002834
:100FA00003D00120FEBC08BC18472848816942696B
:100FB0009142DDD084692D49E000C0314118896833
:100FC0000A0206D5641C192C00D100241F48846134
:100FD000EBE74905490DC91E0F0424493F0C401891
:100FE00001681148816011483900FFF750FE641C08
:100FF000192C00D1002415488461FFF76BFE0028EE
:10100000D3D038002A38A84203DD28002A3007044C
:101010003F0C06493A0000982A3A2A3100F040F97C
:10102000002038E00000E0FF4800004038010040A8
:10103000FEFF0000C0C01FE0C00FE0FF002002392B
:1010400000C002E005111550050115500001E0FF38
:10105000F20500000F37000018800000905C0020AF
:101060001F10000012E000000C1D00000000E07FD7
:10107000B401E07F770000806C0DE07F0002E0FFAC
:1010800060EA0000400D030040C0FF3F0099095C8A
:101090000D290CD0401CA842F8D30299086000F03A
:1010A000D9F85A4941185A48016100207AE7009955
:1010B00000220A54F1E7F8B5564C0021435C62184F
:1010C00020329372425C002A5BD0491C4629F5DB32
:1010D000891C4F480F043F0C47804F48856A4F4892
:1010E000E90008184A4902694A4ECA604C49783EEC
:1010F0007918416147480622B11D00F0D1F84449F2
:1011000006221431A01D00F0CBF81C373904380238
:10111000090E084331001A312082080004227C3075
:1011200000F0BEF831001E3108000422743000F0D7
:10113000B7F8002020833000863014218446FFF762
:10114000F9FD070214216046FFF7F4FD0004000ECC
:1011500007432783708CA084B08C60842C4841881E
:101160000800083002020004000E02430020E2845E
:10117000208528482A31FFF7CEFD6D1C032D07D0AE
:1011800007E060180D22203082720A22C2729FE7A7
:10119000002521488562F8BC08BC0120184730B5FD
:1011A0001B4D1C4C002089B0783C2870012108AAF6
:1011B0006846FFF7D3FE0028F8D1684600783F283C
:1011C000F4D1A08C0622A11DA880608CE880104874
:1011D0001A3000F065F81348FFF76DFF0F2108AAD9
:1011E0006846FFF7BBFE0F490D2204A800F058F82F
:1011F00004A96846FFF70AF80028D7D10948C01E9D
:10120000FFF759FF0120287009B079E560EA000076
:1012100048000040B00100400001E0FF8001E07F95
:101220002A000040921500001B48002101631A4863
:101230001A4A4038C2604161012141607047164935
:10124000002040394860144A1063C86048618860D3
:101250000861704710484038806870470E4940392F
:1012600089680122D207814203D9081A904203D328
:1012700004E0401A904201D30120704700207047DB
:10128000054900B5403989680B181800FFF7E6FFDB
:101290000028FAD008BC1847404000E0DF2E0000CC
:1012A0007847C046030052E32A00009A03C010E2C8
:1012B0000800000A0130D1E402005CE30C2082E067
:1012C00001C0D1940130C0E40130D13401C0C094D8
:1012D000042042E20130C034033011E28500000AEC
:1012E000042052E21B00003A03C031E7020053E33E
:1012F0000800000A0F00008A2C34A0E104C0B1E508
:10130000042052E20C3C83E1043080E4F9FFFF2A20
:10131000011081E20F0000EA2C38A0E104C0B1E521
:10132000042052E20C3883E1043080E4F9FFFF2A04
:10133000021081E2070000EA2C3CA0E104C0B1E504
:10134000042052E20C3483E1043080E4F9FFFF2AE8
:10135000031081E20000A0E1822FB0E10130D1242E
:1013600001C0D1240120D1440130C02401C0C024D7
:101370000120C0441EFF2FE1013090E12100004A0E
:101380000020B0E3A03071E01A00003A203271E092
:101390000F00003A203471E00100003A00C0A0E3E1
:1013A000200000EAA03371E0810340200220B2E077
:1013B000203371E0010340200220B2E0A03271E04E
:1013C000810240200220B2E0203271E00102402080
:1013D0000220B2E0A03171E0810140200220B2E0A1
:1013E000203171E0010140200220B2E0A03071E024
:1013F000810040200220B2E0011050E00010A03136
:101400000200A2E01EFF2FE1022111E20010614262
:1014100040C032E000006022203271E01D00003A3E
:10142000203471E00F00003A0113A0E1203471E094
:101430003F2382E30B00003A0113A0E1203471E066
:101440003F2682E30700003A0113A0E1203471E057
:101450003F2982E30113A0213F2C8223003071E257
:101460001D00002A2113A021A03371E08103402038
:101470000220B2E0203371E0010340200220B2E0FC
:10148000A03271E0810240200220B2E0203271E0FF
:10149000010240200220B2E0A03171E08101402031
:1014A0000220B2E0203171E0010140200220B2E0D0
:1014B000EBFFFF2AA03071E0810040200220B2E063
:1014C000011050E00010A0310200A2E0CCCFB0E14A
:1014D00000006042001061221EFF2FE1CCCFB0E17E
:1014E0000000604201402DE90000B0E30000A0E1EF
:1014F0000240BDE81EFF2FE110402DE9202052E2FE
:101500000500003A1850B1E8202052E21850A0E837
:101510001850B1E81850A0E8F9FFFF2A02CEB0E158
:101520001850B1281850A0281800B1481800A04839
:101530001040BDE802CFB0E1043091240430802493
:101540001EFF2F01822FB0E1B230D1200120D14403
:10155000B230C0200120C0441EFF2FE17847C046B2
:1015600001C05EE50C0053E10C30DE270330DE37AE
:1015700083C08EE01CFF2FE14F4B00524553454E78
:10158000440053796E6368726F6E697A6564004FC8
:101590004B0053796E6368726F6E697A6564000000
:1015A000000000000000000000000000000000003B
:1015B000000000000000000000000000000000002B
:0815C000000000000000000023
:0400000500000000F7
:00000001FF
