:1001010000001FFF20003FFF40007FFF8000BFFF76
:04011100C000FFFF2C
:10008F00E4FEEF25E025E02401F582E43401F58359
:10009F00E493FC740193FD8D828C83E4932EFEEF29
:1000AF0025E025E02403F582E43401F583E493FA97
:1000BF007401936D7002EA6C60070DBD00010C8036
:1000CF00D6AF06C3E49FFF74019400FEEF64554E54
:0700DF0070037F01227F0086
:0100E60022F7
:040115000208FFA03D
:1000E700850982850883E4F0FF12008FEF60098598
:0A00F700098285088374FFF080FE83
:03000000020003F8
:0C000300787FE4F6D8FD75810902004A00
:10000F000200E7E493A3F8E493A34003F68001F220
:10001F0008DFF48029E493A3F85407240CC8C333F2
:10002F00C4540F4420C8834004F456800146F6DFC1
:10003F00E4800B0102040810204080900115E47E3B
:10004F00019360BCA3FF543F30E509541FFEE493B6
:10005F00A360010ECF54C025E060A840B8E493A37D
:10006F00FAE493A3F8E493A3C8C582C8CAC583CAA8
:10007F00F0A3C8C582C8CAC583CADFE9DEE780BE60
:0101190000E5
:00000001FF
