:03000000020003F8
:1000030075810BE4787FF6D8FD900083E49370024A
:10001300804EC31392D5C31392D1FFA3E493F8B0D8
:10002300D5402130D505E4A393F5A0E420D102A364
:100033009320D507F608DFF3A380D1F208B800F6C2
:1000430005A080F2E8030303541F2420F9E85407B2
:10005300F8E4D333B80002800333D8FD47F780D8E0
:0600630075A0FF02006918
:10006900850883850982E4F0FF12009CEF60098509
:0A007900088385098274FFF080FE01
:040083000808FFA0CA
:010087000078
:1000880000001FFF20003FFF40007FFF8000BFFFF0
:04009800C000FFFFA6
:10009C007E00EF25E025E02488F8E43400F5838821
:0800AC0082E493FC740193FD52
:1000B4008C838D82E4932EFEEF25E025E0FB7A000D
:1000C400248AF8F582E43400F583E493B5040874D3
:1000D4000193B5050280070DED70D50C80D2EEFBBF
:1000E40074FFC39BFBE49400FAEB2401FBE43AFAAB
:0C00F400EB64554A70037F0122E4FF22F8
:00000001FF
