:0502DE00626F6F740067
:0802D5000212FFA0021002DE7C
:1002B500D2CDD2CC75CBFF75CA7E759852D2CA22E3
:030023000200B226
:1000B200C0E0C0F0C083C082C0D075D00830985371
:1000C200C298851182851083E4936599703F3099B7
:1000D200FDC299851182851083E493F5990511E596
:1000E2001170020510F582851083E4937025309912
:1000F200FDC29975992EC2AF1202977FFC12027847
:100102007FFF12025975A61E75A6E180FE751002C8
:0E0112007511DED0D0D082D083D0F0D0E03294
:10014E001202B57F141202E3D2ACD2AF85138285B0
:10015E001283E4F0851382851283E0F4F0E4FFFE4F
:0D016E000FBF00010EBE27F8BF10F580E79F
:1001DD00C0A8C2AFC0D953D9DF43A220A81479005B
:0F01ED0090000012FFF0FF53A2DFD0D9D0A8225C
:0302E3008F142253
:10017B00C0A8C2AFC0D953D9DF43A220A8147900BD
:10018B007583008F8212FFF0FF53A2DFD0D9D0A866
:01019B002241
:1001FC00C0A8C2AFC0D953D9DF43A220A814790735
:0F020C0090000012FFF0FF53A2DFD0D9D0A8223C
:10012000C0A8C2AFC0D953D9DF43A2207E00EF756B
:10013000830030E109A81479058E8212FFF0C31301
:0E0140000EBE030040EC53A2DFD0D9D0A8229F
:10019C00C0A8C2AFC0D953D9DF43A220A81479029A
:1001AC008C838D82EF12FFF0FF53A2DFD0D9D0A841
:0101BC002220
:10000300C0A8C2AFC0D953D9DF43A220A814790333
:100013008E838F8212FFF0FF53A2DFD0D9D0A822A4
:1001BD00C0A8C2AFC0D953D9DF43A220A81479017A
:1001CD008F8375820012FFF053A2DFD0D9D0A82201
:1002C500C2AF53D9DF43A220A814790812FFF02248
:10021B00C0A8C2AFC0D953D9DF43A220A814790715
:0F022B0090000212FFF0FF53A2DFD0D9D0A8221B
:10023A00C0A8C2AFC0D953D9DF43A220A8147907F6
:0F024A0090000112FFF0FF53A2DFD0D9D0A822FD
:10029700C0A8C2AFC0D953D9DF43A220A81479049C
:0E02A70075830012FFF053A2DFD0D9D0A82239
:10025900C0A8C2AFC0D953D9DF43A220A8147906D8
:0F026900EF90000012FFF053A2DFD0D9D0A822EF
:10027800C0A8C2AFC0D953D9DF43A220A8147906B9
:0F028800EF90000112FFF053A2DFD0D9D0A822CF
:03000000020026D5
:0C002600787FE4F6D8FD75811402006DAF
:1000320002014EE493A3F8E493A34003F68001F295
:1000420008DFF48029E493A3F85407240CC8C333CF
:10005200C4540F4420C8834004F456800146F6DF9E
:10006200E4800B01020408102040809002D5E47E57
:10007200019360BCA3FF543F30E509541FFEE49393
:10008200A360010ECF54C025E060A840B8E493A35A
:10009200FAE493A3F8E493A3C8C582C8CAC583CA85
:1000A200F0A3C8C582C8CAC583CADFE9DEE780BE3D
:0102DD000020
:00000001FF
