:03000000020026D5
:10000300C0A8C2AFC0D953D9DF43A220A814790036
:0F00130090000012FFF0FF53A2DFD0D9D0A82237
:0300230002021DB9
:10002600758115E478FFF6D8FD9002B6E493700268
:10003600804EC31392D5C31392D1FFA3E493F8B0B5
:10004600D5402130D505E4A393F5A0E420D102A341
:100056009320D507F608DFF3A380D1F208B800F69F
:1000660005A080F2E8030303541F2420F9E854078F
:10007600F8E4D333B80002800333D8FD47F780D8BD
:0600860075A0FF02028BD1
:03008C008F1422AC
:10008F00C0A8C2AFC0D953D9DF43A220A8147900AA
:10009F007583008F8212FFF0FF53A2DFD0D9D0A853
:0100AF00222E
:1000B000C0A8C2AFC0D953D9DF43A220A814790782
:0F00C00090000012FFF0FF53A2DFD0D9D0A8228A
:1000CF00C0A8C2AFC0D953D9DF43A2207E00EF75BD
:1000DF00830030E109A81479058E8212FFF0C31353
:0E00EF000EBE030040EC53A2DFD0D9D0A822F1
:1000FD00C0A8C2AFC0D953D9DF43A220A81479023A
:10010D008C838D82EF12FFF0FF53A2DFD0D9D0A8E0
:01011D0022BF
:10011E00C0A8C2AFC0D953D9DF43A220A814790317
:10012E008E838F8212FFF0FF53A2DFD0D9D0A82288
:10013E00C0A8C2AFC0D953D9DF43A220A8147901F9
:10014E008F8375820012FFF053A2DFD0D9D0A82280
:10015E00C2AF53D9DF43A220A814790812FFF022B0
:10016E00C0A8C2AFC0D953D9DF43A220A8147907C3
:0F017E0090000212FFF0FF53A2DFD0D9D0A822C9
:10018D00C0A8C2AFC0D953D9DF43A220A8147907A4
:0F019D0090000112FFF0FF53A2DFD0D9D0A822AB
:1001AC00C0A8C2AFC0D953D9DF43A220A814790488
:0E01BC0075830012FFF053A2DFD0D9D0A82225
:1001CA00C0A8C2AFC0D953D9DF43A220A814790668
:0F01DA00EF90000012FFF053A2DFD0D9D0A8227F
:1001E900C0A8C2AFC0D953D9DF43A220A814790649
:0F01F900EF90000112FFF053A2DFD0D9D0A8225F
:05020800626F6F74003D
:10020D00D2CDD2CC75CBFF75CA7E759852D2CA228B
:10021D00C0E0C0F0C083C082C0D075D00830985304
:0D022D00C298851283851382E493B5994031
:10023A003099FDC299851283851382E493F5990555
:10024A0013E51370020512851283851382E49370F5
:01025A00257E
:10025B003099FDC29975992EC2AF1201AC7FFC1279
:0F026B0001E97FFF1201CA75A61E75A6E180FE8C
:10027A00751202751308D0D0D082D083D0F0D0E0A6
:01028A003241
:10028B0012020D7F1412008CD2ACD2AF8510838575
:04029B001182E4F0F8
:10029F00851083851182E0F4F07B107A28DBFEDA7B
:0702AF00FC7C277D1080E9B3
:0802B6000810FFA00812020865
:0102BE00003F
:00000001FF
