:020000041000EA
:10000000A8130810D1000010D9000010DB00001068
:10001000DD000010DF000010E10000105A5A5A5AAB
:10002000000000000000000000000000E3000010DD
:10003000E500001000000000E7000010791A001031
:10004000EB000010EB000010EB000010EB000010C4
:10005000EB000010EB000010EB000010EB000010B4
:100060004F1D0010EB000010EB000010EB00001023
:10007000EB000010EB000010EB000010EB00001094
:10008000EB000010EB000010EB000010EB00001084
:10009000EB000010EB000010EB000010EB00001074
:1000A000EB000010EB000010EB000010EB00001064
:1000B000EB000010EB000010EB000010DFF80CD09C
:1000C00005F020FD00480047D51B0010A8130810BC
:1000D0000648804706480047FEE7FEE7FEE7FEE7E2
:1000E000FEE7FEE7FEE7FEE7FEE7FEE7C9090010D0
:1000F000BD0000107046704730B51F24FD4D2C60C8
:10010000FD4CFE4DEC660024AC612C46646C44F062
:1001100001046C64FA4C6C6400BFF84C246C04F06D
:100120000104002CF9D0F74CF44DEC664FF47A71D1
:1001300000E0491E0029FCD1F34CF04D6C6400BF77
:10014000EE4C246C04F00104002CF9D0ED4CEB4D86
:10015000EC662C46246A44F001042C624FF4804083
:10016000142424B1012C05D0022C07D104E04FF057
:10017000FF3012E0E54810E0E5480EE0142108E009
:1001800080EA500404F00104C0F34D0545EA8430D0
:10019000491CB1F5004FF3D900BF00BF0B22182353
:1001A000540444EA83540443D44D6C6280200124F7
:1001B00024B1012C05D0022C09D105E04FF0FF300D
:1001C00018E040F2023015E040F2022012E0012176
:1001D0000CE080EA900484EAD00484EA101404F06D
:1001E0000104C0F3460545EAC410491CB1F5807FFF
:1001F000EFD900BF00BF0403C04DAC621020012442
:1002000024B1012C05D0022C07D104E04FF0FF30BF
:1002100012E0622010E042200EE0012108E080EAB6
:10022000900404F00104C0F3430545EA0410491C9E
:10023000B1F5007FF3D900BF00BFB04CA46A0443FE
:10024000AE4DAC62B34C2C6200BFAC4CE46904F020
:100250000104002CF9D0AB4C0834A84DAC64AE4C72
:10026000EC64A54C2C656C65A64C8434AC6530BD43
:100270002DE9F04704464FF47A70A8490968A0FBBD
:1002800001700146A64A0023384605F04BF90022CA
:10029000A0FB045701FB047100FB021104220023A0
:1002A000284605F03FF9814600BFB9F10000A9F1E9
:1002B0000109FAD1BDE8F0872DE9F04385B00720A8
:1002C0009849086000BF9748001D006800F00100D1
:1002D0000028F8D0914800689349884203D2002052
:1002E0009249086003E047F2777090490860F22075
:1002F0008F4908608E498039C1F884008C490831E3
:100300000860F320091D0860091D0860091D0860C8
:10031000091D0860091D0860091D0860091D0860A5
:10032000091D0860091D0860091D0860091D086095
:10033000091D0860F2207E4980310860091D0860AF
:10034000091D08607A4998310860F320091D08608A
:10035000091D0860091D0860091D0860091D086065
:10036000091D0860091D0860F22072490860091D16
:100370000860091D0860091D0860091D0860091D45
:100380000860091D0860091D0860F1206949843171
:100390000860091D0860F320091D0860091D086038
:1003A000091D0860F120091D0860091D0860091D6C
:1003B0000860F320091D0860091D0860091D086018
:1003C000091D08605C490860F2205C490860091D4D
:1003D0000860091D0860091D0860091D0860091DE5
:1003E0000860091D0860091D0860091D0860091DD5
:1003F0000860091D0860091D0860091D0860091DC5
:100400000860091D0860091D0860091D0860F320C7
:100410004A4980310860091D0860091D0860091DEE
:100420000860091D0860091D0860091D0860091D94
:100430000860091D0860091D0860091D0860091D84
:100440000860091D0860091D0860091D0860091D74
:10045000086001203A4908600020886000242F4885
:100460000068384988422ED901244FF0000910E075
:100470004FEA890000F1805000684DF829003248A9
:1004800050F829104FEA890000F18050016009F10D
:100490000109B9F1050FEBD3BFF36F8F2722214973
:1004A00048312A482A4B98474FF0000908E05DF888
:1004B00029104FEA890000F18050016009F101091B
:1004C000B9F1050FF3D3F02022490860091D086037
:1004D000091D0860091D08608A2006490C3908605A
:1004E00000201749C1F8080201200249091D0860CF
:1004F0005A2131E00C520040000800010000054084
:10050000802027060008000980080E0603800100ED
:10051000030001001C080006040800030000081086
:1005200000CA9A3B3014054000B4C404006D084072
:10053000806008408062084010650840806608407E
:1005400000500040000E2707C86400102C31044002
:1005500001000010006C0840FA480268601CB2FB01
:10056000F0F0A1FB00500146F74A0023284604F0B2
:10057000D9FF401CF549C1F80C020846D0F800022A
:1005800040F40020F24908604FF48A40F1490860C5
:1005900040F2033001F1040108604FF00100EB4923
:1005A00088624FF01401E748026804F10100B2FBD1
:1005B000F0F0A1FB0051E44A4FF00003284604F09C
:1005C000B1FFE24908632A21DE480268601CB2FBE1
:1005D000F0F0A1FB0051DC4A0023284604F0A2FF02
:1005E000DA4948633F21D7480268601CB2FBF0F04B
:1005F000A1FB0051D44A0023284604F093FFD349BD
:1006000088634621CF480268601CB2FBF0F0A1FB72
:100610000051CD4A0023284604F084FFCB49C8632B
:100620004621C8480268601CB2FBF0F0A1FB0051F3
:10063000C54A0023284604F075FFC44908641E21FA
:10064000C0480268601CB2FBF0F0A1FB0051BE4A3A
:100650000023284604F066FFBC4948643F21B9489E
:100660000268601CB2FBF0F0A1FB00500146B64AE4
:100670000023284604F056FFB44988643F21B1485E
:100680000268601CB2FBF0F0A1FB00500146AE4ACC
:100690000023284604F046FFAC49C8643F21A9481E
:1006A0000268601CB2FBF0F0A1FB00500146A64AB4
:1006B0000023284604F036FFA44908650E21A1480E
:1006C0000268601CB2FBF0F0A1FB00519E4A0023BF
:1006D000284604F027FF9D4948651E219948026875
:1006E000601CB2FBF0F0A1FB00500146964A0023CB
:1006F000284604F017FF954988656420FFF7B8FD88
:1007000040F28310914908620A20FFF7B1FD40F2E0
:1007100003108E4908620120FFF7AAFD40F2831002
:100720008A4908620120FFF7A3FDC82185480268B5
:10073000601CB2FBF0F0A1FB00700146824A00236E
:10074000384604F0EFFE05461022002304F0EAFECE
:10075000401C7E4948624FF00A00FFF789FD43F6CE
:10076000095178480268601CB2FBF0F0A1FB005010
:100770000146754A0023284604F0D4FE074610229D
:10078000002304F0CFFE401C704948624FF00A007D
:10079000FFF76EFD83206D4908626F4800680A20EC
:1007A000FFF766FD0220694908620846D0F800019B
:1007B00040F40020C1F8000105B0BDE8F08330B579
:1007C00002466648406920F40000644D686140F2CA
:1007D000FF1000EB026068612846406940F40000A9
:1007E00068610BE05D484069C0F34D215B4840699A
:1007F000C0F3080311B90BB9002030BD5748406958
:1008000000F400000028EDD154484069C0F34D21A8
:1008100045F6BB3001FB00F42046EEE702464FF000
:10082000FF33112A44D2DFE802F00E090A0B0C4311
:1008300019232629434334373A3D400000BF00BF07
:1008400000BF104670474648406800F00A00022882
:1008500002D04FF0FF30F5E70020F3E73F48806912
:1008600000F0010010B14FF0FF30EBE70620E9E7A0
:100870003A48016A1EE03948016B1BE03748006CBA
:1008800000F0010010B13548406C00E00020014646
:1008900010E03248816C0DE03048C16C0AE02F480E
:1008A000016D07E02D48416D04E02C48816D01E0A9
:1008B0001846C7E700BF01F0010008B9C1F304639F
:1008C0001846BFE72DE9F04780464FF001090124A3
:1008D0000026474600BF112F5BD2DFE807F0090C66
:1008E0000E10125A144E4F505A5A161D242B470000
:1008F0004FF4004650E01B4E4EE01B4E4CE01A4EAB
:100900004AE0184E48E0174E46E01448806CC0F3A9
:100910008100401C44433FE01048C06CC0F381009C
:10092000401C444338E00D48006DC0F38100401C7A
:10093000444331E00948406DC0F38100401C44430A
:100940002AE000000000081000CA9A3B0050004056
:1009500000520040005100400020032800000540E4
:1009600000300440001BB70080F0FA022148806D7F
:10097000C0F38100401C44430EE00DE00CE005F0A4
:10098000FFF80546E8B209FB00F9C5F30720444328
:1009900002E00020BDE8F08700BF1EB93846FFF72F
:1009A0003DFF0746002E96D006FB09F0B0FBF4F0A1
:1009B000F0E710B50F48C06EC0F304642046FFF79F
:1009C00081FF0D49086010BD10B54FF0E0200069AF
:1009D00020F003004FF0E021086108486FF3130096
:1009E00007490860FFF788FBFFF7E3FFFFF764FCA8
:1009F00010BD0000000005400000081000000010BD
:100A000008ED00E0F0B5074DD618C7014FF0040C13
:100A10000CFB0174E71704EB9777BF1045F82760CC
:100A2000F0BD00000060084010B50146102221B161
:100A3000012905D0022907D104E04FF0FF3010BD95
:100A40006220FCE74220FAE70B4608E082EA9200C7
:100A500000F00100C2F3430444EA00125B1C202BA7
:100A6000F4D91046EBE710B50246802122B1012AE5
:100A700005D0022A09D105E04FF0FF3010BD40F249
:100A80000230FBE740F20220F8E713460CE081EA6F
:100A9000910080EAD10080EA111000F00100C1F35A
:100AA000460444EAC0115B1CB3F5807FEFD90846C9
:100AB000E4E710B501464FF4804221B1012905D089
:100AC000022907D104E04FF0FF3010BDFE48FCE7DB
:100AD000FE48FAE70B4608E082EA520000F0010007
:100AE000C2F34D0444EA80325B1CB3F5004FF3D9E6
:100AF0001046EAE70146B1F5804F01D90120704761
:100B0000B1F5005F01D90220F9E7B1F5006F01D915
:100B10000420F4E7B1F5FA7F01D90820EFE73C297A
:100B200007D301F109004FF48062B2FBF0F08000BE
:100B3000E5E701F03C00001DE1E701463C2902D257
:100B40004808401C70471F20FCE72DE9FF4F9DB06F
:100B50000F462A9C1D9804F0B0FECDE91A013846D4
:100B600004F0ABFECDE9180100201390401E0F9059
:100B700000200E900D900C9000210A910B911F986F
:100B800004F0C1FE0022D24BCDE9060104F0CEFEF6
:100B900009D31F9804F0B7FE0022CE4BCDE9060121
:100BA00004F0DCFE03D2012021B0BDE8F08F2098D4
:100BB00004F0A9FE0022C74BCDE9060104F0B6FE01
:100BC00009D3209804F09FFE0022C34BCDE9060113
:100BD00004F0C4FE01D20220E6E7C0491D98884215
:100BE00001D20320E0E7BE491D98B1EB102F01D2DE
:100BF0000420D9E7BB48874201D20520D4E7BA4890
:100C0000874201D90620CFE7B848874201D90120A1
:100C10000CE04FF04040B649DDE9182304F0DEFD5A
:100C2000CDE9060104F056FE20F001000890089876
:100C3000402801D9402008904FF04040AD49DDE9FF
:100C4000182304F0CBFDAC4AA24BDB1ECDE9040116
:100C500004F0ABFCCDE9060104F03CFE09900998D4
:100C600008B901200990DDF82080E7E00022A34BBD
:100C7000DDE91A0104F0B2FD9F4A964BDB1ECDE977
:100C8000040104F092FCCDE9060104F023FE139068
:100C9000BBE0139804F011FE02460B46CDE90601B5
:100CA000DDE91A0104F09AFDCDE9160100204FF0AC
:100CB0008041DDE9162304F01FFDCDE90401404623
:100CC00004F0FBFDCDE90001DDE9182304F014FD7B
:100CD000CDE90201DDE9042304F080FDCDE9060140
:100CE00004F0F8FD4000129086E0129804F0E5FD53
:100CF000CDE90601DDE9162304F0FEFC05460E46AB
:100D00004FF040427A4B2846314604F027FE00D28D
:100D100077E0B8F1010F02D1284631460AE040469B
:100D200004F0CBFD02460B46CDE9060128463146CC
:100D300004F054FD81468A4648465146DDE91823B1
:100D400004F04CFDCDE914011F9804F0DCFDCDE961
:100D50000601DDE9142304F0E9FD42D8209804F0EF
:100D6000D2FDCDE90601DDE9142304F0F7FD38D802
:100D70000022574B4846514604F017FCCDE90601C6
:100D800004F0A8FD11901198874202D21198C01B5F
:100D900001E01198381A1090DDE90F10884212D343
:100DA000DDE90F1088421CD10E99139888420AD3AE
:100DB0000E991398884214D128463146DDE90A235A
:100DC00004F0B4FD0DD210980F9013980E90129865
:100DD0000D90CDF83080CDE90A561198B84200D177
:100DE00036E048465146DDE9182304F0B7FD00D24D
:100DF00007E01298801C12901298B0F5803F7FF6A1
:100E000074AF00BF1398401C139034491D98B0FB79
:100E1000F1F0FF2803D81D98B0FBF1F001E04FF48A
:100E2000807013998842BFF434AFB8F1020F01D932
:100E3000012000E00020401CA8EB00080998804534
:100E4000BFF414AF0F98401C08B90720ACE600BFF0
:100E50000E9804F032FD02460B46CDE90601DDE9AD
:100E60001A0104F0BBFCCDE916010D9804F025FD34
:100E7000CDE90601DDE9162304F03EFC05460E46E9
:100E80000C9804F01AFD02460B46CDE906012846EF
:100E9000314604F0A3FC81468A460D994808FFF7C5
:100EA00029FE82050D994808FFF747FE42EA404BAC
:100EB0000D994808FFF7FDFD4BEA000BC4F808B098
:100EC0000C9801281FD11BE00380010003000100E2
:100ED0000000E03F0000F03F0000F83FA086010066
:100EE00080D1F008AB9041008055C820C02A641022
:100EF0002A64C0412A64B041E90B21E7A3E1A14182
:100F00004FF0000B04E00C994808FFF78DFD834675
:100F10000E98012801D1002002E00E98FFF7A3FDF2
:100F20004BEA0030E0600C98012801D1082000E075
:100F300000200E99012901D1042100E0002108437D
:100F400046F21001084420600D984108B4F81100E1
:100F500061F30E0004F11001A4F811000E98207442
:100F60000C98012800D101E00C984008618A60F3D8
:100F7000CB1161820022F74B2846314604F015FB65
:100F8000CDE9060104F0A6FC60610022F14B484661
:100F9000514604F00AFBCDE9060104F09BFCA06178
:100FA000A069C01BE06148465146DDE91A2304F000
:100FB00015FCC4E908010020F6E570B5E64D6D6842
:100FC00005F002055DB1E44D6D6805F0080585F09A
:100FD000080525B14FF40045E04E356002E00025DC
:100FE000DE4E3560DE4D2D6A05F0020585F0020506
:100FF0004DB1DB4DED6905F0010525B1D94D2D68E9
:10100000D64EF56102E00025D44EF561D44D2D6B2E
:1010100005F0020585F002054DB1D14DED6A05F0F0
:10102000010525B1D04D2D68CC4E356202E000257A
:10103000CA4E3562CA4D6D6C05F0020585F0020599
:10104000A5B1C74D2D6C05F001057DB1C44D6D6C8A
:10105000C5F30362C14D55F82250C14E766CC6F3FC
:101060000746761C7543BD4E756202E00025BB4EF7
:1010700075620C2020E0BD4D35F91010B84D4C596B
:1010800004F0020585F002058DB1B54D4D59C5F34B
:101090000362B34D4D5BC5F387035B1CAF4D55F841
:1010A0002250B5FBF3F5AD4E46F8205003E0002585
:1010B000AA4E46F82050401C1028DCD970BD30B52F
:1010C0000346102B01DD032030BD07292FDB252926
:1010D0002DDCC3EB031000EB4000A54D2844405C21
:1010E00018B3A24830F91320501C58B1102909DC5C
:1010F000072907DB9A481058C0F30360884201D1E2
:101100000120E1E7994830F91120501C08B902206C
:10111000DAE79348145824F07064C01440EA03607E
:1011200004438F4814500020CEE70320CCE7022070
:10113000CAE72DE9F04104460F46F4B95FB186488D
:10114000406820F00C00844948600846406840F040
:10115000030048600AE08048406820F003007E49B0
:1011600048600846406840F008004860002600E0FB
:10117000761C80488642FBDB64E0022C06D1032308
:10118000102200210C20FFF73DFC5BE0032C06D170
:101190000023102213210120FFF734FC52E0042C1D
:1011A00050D0052C4ED0062C14D137B96C4880692C
:1011B00040F001006A49886105E06948806920F0D3
:1011C000010067498861002600E0761C6948864274
:1011D000FBDB37E0654830F91450681C10B9022079
:1011E000BDE8F08137B95E48285840F001005C49FD
:1011F000685027E05A48285820F0010058496850A4
:10120000072C06D100BF5648C06900F00100002835
:10121000F9D0082C06D100BF5148C06A00F0010087
:101220000028F9D0092C0DD100BF4D48006C00F00A
:1012300001000028F9D04A48006C00F0010008B90C
:1012400000BFFEE70020CBE7F0B5024600240025F2
:10125000002301264248406CC0F303673F4850F822
:1012600027105143541E3E48406CDFF80CC100EA81
:101270000C00DFF8ECC0CCF84400404881421AD2A0
:1012800001E05B1C760070004843DFF8F0C0604569
:10129000F7D3200440EA053040EA032040F0400044
:1012A000DFF8BCC0DCF844C040EA0C00DFF8B0C096
:1012B000CCF8440016E03248814211D2200440EAC2
:1012C000053040EA032040F0C000DFF894C0DCF8AD
:1012D00044C040EA0C00DFF888C0CCF8440001E0CC
:1012E0000420F0BD0020FCE701462648814206D2DA
:1012F0001B48806920F00400194A90610BE02248E5
:10130000814206D21648806940F00400144A906178
:1013100001E005207047114881610020FAE710B50F
:101320001A48FFF7E1FF01210620FFF702FF09211C
:101330000620FFF7C4FE0620FFF786FF01210920E3
:10134000FFF7F7FE15210920FFF7B9FEFFF735FE7D
:10135000002010BD0000E03F0030044004000810F1
:1013600000000540480008104C000810E064001020
:101370003A65001040420F003DCC00FF005F4C0971
:1013800000D01213C0E1E40040787D01001BB700DB
:101390000146A1F1110014284DD2DFE800F04B1EE8
:1013A0004C2319144C4C4C0F0A4C4C46413C3732E0
:1013B0002D28FE48406800F001007047FB48406857
:1013C000C0F34000F9E7F9484068C0F38000F4E753
:1013D000F6484068C0F3C000EFE7F4484068C0F347
:1013E000C010EAE7F1484068C0F30020E5E7F048A4
:1013F0004068C0F34000E0E7ED484068C0F380007B
:10140000DBE7EB484068C0F3C000D6E7E848406837
:10141000C0F30010D1E7E6484068C0F34010CCE7C5
:10142000E3484068C0F38010C7E7E1484068C0F374
:10143000C010C2E700E000BF00BF0020BDE770B5EC
:1014400004460D46262C03DB002C01DC042070BD75
:10145000002D7DD104EB8400D64901EB400040888B
:1014600050B304EB840001EB40004088D2490844AB
:10147000007900F00100F8B104EB8400CD4901EBE4
:1014800040004088CC49405820F0010004EB840122
:10149000C84A02EB41014988C74A885000BF04EBA3
:1014A0008400C44901EB40004088C34908440079E6
:1014B00000F001000028F2D104EB8400BD4911F8CE
:1014C00010002D280FD004EB8401BA4A12F8110045
:1014D000FFF75EFF38B904EB8401B64A12F8110039
:1014E0000021FFF726FE04EB8400B24901EB400027
:1014F000C08850B304EB840001EB4000C088AE49C3
:101500000844007900F00100F8B104EB8400A94917
:1015100001EB4000C088A849405820F0010004EBCE
:101520008401A44A02EB4101C988A34A885000BF44
:1015300004EB84009F4901EB4000C0889E490844A9
:10154000007900F001000028F2D104EB840000E0F3
:1015500019E0984901EB400000792D2812D004EBE6
:101560008401944A02EB41010879FFF711FF00283A
:1015700008D104EB84018F4A02EB41010879002174
:10158000FFF7D7FD9CE004EB84008A4911F81000B6
:101590002D2813D004EB840011F81000874931F98D
:1015A00010008549405C00F0010038B104EB840173
:1015B000804A12F811000121FFF7BBFD04EB840003
:1015C0007C4901EB4000408850B304EB840001EB00
:1015D0004000408878490844007900F00100F8B9DB
:1015E00004EB8400734901EB400040887249405885
:1015F00040F0010004EB84016E4A02EB410149888E
:101600006D4A885000BF04EB84006A4901EB40003A
:10161000408869490844007900F001000028F2D0B0
:1016200004EB8400634901EB400000792D2815D0BC
:1016300004EB840001EB40000079604931F91000AF
:101640005D49405C00F0010040B104EB8401594A5F
:1016500002EB410108790121FFF76BFD04EB8400E7
:10166000544901EB4000C08850B304EB840001EB07
:101670004000C08850490844007900F00100F8B9E2
:1016800004EB84004B4901EB4000C0884A494058B4
:1016900040F0010004EB8401464A02EB4101C98895
:1016A000454A885000BF04EB8400424901EB4000EA
:1016B000C08841490844007900F001000028F2D0B8
:1016C00004EB84003B4901EB4000007A48B104EB95
:1016D0008401384A02EB4101087A2946FFF7AFFE40
:1016E000B5E60020B3E60146262903DB002901DC2C
:1016F0000420704701EB81002E4B03EB4000007982
:101700002D282FD001EB810003EB400000792B4BFB
:1017100033F91000284BC058C0F3036201EB81007D
:10172000244B03EB40000079244B33F91000224B8B
:10173000C05C00F0010008B10020DAE701EB810095
:101740001C4B03EB4000C08878B301EB810003EB36
:101750004000C088184B1844007900F0010020BBFD
:101760000020C6E701EB8100124B13F81000134B69
:1017700033F91000104BC05C00F0010008B10020EC
:10178000B7E701EB81000B4B13F810000B4B33F95B
:101790001000094BC058C0F3036201EB8100054BF8
:1017A00003EB4000408800B10AE016E0001005405D
:1017B000002005403868001000000540E06400107B
:1017C00001EB810003EB40004088784B184400791E
:1017D00000F0010008B900208BE7754850F822009E
:1017E00087E710B502460C460C2A14DB102A12DCDF
:1017F000704830F91210481C08B9022010BD6B481F
:101800000B5823F47F73601EC0B243EA800367481D
:101810000B500020F2E70220F0E72DE9F0418CB0F8
:1018200006460D461746984600206349086002A800
:1018300043463A46294600903046FFF786F904466B
:101840002CB1072C03D204200CB0BDE8F081072C8A
:1018500001D10620F8E758480560544904984862C9
:1018600005988862029808620020EDE72DE9F041B2
:101870008CB006460D461746984600204F49086032
:1018800002A843463A46294600903046FFF75DF9E4
:1018900004462CB1072C03D204200CB0BDE8F08123
:1018A000072C01D10620F8E7444805603F49049819
:1018B000486305988863029840F40050086300204C
:1018C000EBE7F0B504460D46164640F2FF114FF423
:1018D000000040EA04600843DFF8D0C0CCF81400F0
:1018E00000BF3248406900F400000028F9D100230D
:1018F00000E05B1C42F210708342FADB2B48406927
:10190000C0F34D2212B94FF0FF30F0BDB2F5007FA9
:1019100008D326484069C0F3080040F2FF1CACEB36
:1019200000011FE000BF491E4FF4000040EA0460C0
:101930000843DFF878C0CCF8140000BF1B484069AA
:1019400000F400000028F9D1002300E05B1C42F203
:1019500010708342FADB15484069C0F34D27974267
:10196000E1D0491C2A6031600020CEE7FFB5054672
:101970000C4616461F46102D01DC102C02DD0420FB
:1019800004B0F0BD01AA03A92846FFF79AFF6A46F2
:1019900002A92046FFF795FF00990398484330605D
:1019A000DDE90101484338600020E9E70000054017
:1019B00004000810E0640010480008104C000810F3
:1019C00010B53AB1294B53F820300B43274C44F85B
:1019D000203006E0254B53F820308B43234C44F84D
:1019E000203010BD224A42F820107047204A803231
:1019F00042F82010704701461E4850F821007047F9
:101A000070B504460D461646324629462046FFF775
:101A1000D7FF70BD10B503460C4621461846FFF7A8
:101A2000E1FF10BD10B503460C4621461846FFF7EE
:101A3000DDFF10BD00B502461046FFF7DCFF00BD1C
:101A400010B54AB1094B803353F820300B43074C93
:101A5000803444F8203008E0044B803353F82030C1
:101A60008B43024C803444F8203010BD00600F409E
:101A700000620F4000610F4010B503F033FB564881
:101A80000068401C54490860FA2815D100200860FD
:101A90005248006840B14FF480710020FFF7A2FF68
:101AA00000204E49086007E04FF480710020FFF7E6
:101AB0009DFF01204949086010BD70B504460D46E0
:101AC0002A462146012000F07FF970BD70B504461A
:101AD0000D46164632462946204600F075F970BD7F
:101AE0002DE9F04107460C46154637B1022F0DD0BF
:101AF000032F0ED0042F1ED114E0002603E0A05DBA
:101B000000F024FA761CAE42F9DB14E001F004FB8D
:101B100011E0002D05DD207801F068FC207803F04D
:101B20008EFA08E02946204601F063FC294620464B
:101B300003F0E0F900BF00BFBDE8F081FEF744FF0D
:101B4000FFF7EDFB00F0FAF900F057F901F0CEFADB
:101B5000AFF2730000F035F9AFF2A101AFF29300DC
:101B600001F0D5FAAFF2AD0002F0BDF8002310226B
:101B700001210846FEF746FF012211020020FFF76F
:101B80001FFF1749B1F1807F00D31DE021F07F4096
:101B9000401E4FF0E022506150170722002807DA5C
:101BA00053071D0E0F4B00F00F04241F1D5503E0BB
:101BB00053071C0E0C4B1C5400BF00204FF0E022BA
:101BC00090610720106100BF02F090F801E001F081
:101BD000B8FAFCE7FFF7B2FF5400081050000810F5
:101BE0004019010018ED00E000E400E070B5054682
:101BF0000E461446012C0CD0022C0BD0042C0DD117
:101C0000B848006808B1002070BD0120B5490860DF
:101C100004E000BF0020B349086000BF00BF2246B7
:101C200031462846B04B1B689847EDE710B504468F
:101C3000002010BD10B50446002010BD2DE9F04174
:101C400007460C4615462646022D14D0032D02D019
:101C5000042D29D103E00020A449086024E0F17B91
:101C6000A348006800684023D0F848C0A148026833
:101C70003846E04718E0F17B9D4800680068436CF7
:101C80009C480268384698479B48006858B1994973
:101C900009684A7897490968087896490968891C4B
:101CA000954B1B68984700BF00BF0020BDE8F0813E
:101CB0002DE9F04190B007460C4615461E464FF000
:101CC0000008382102A803F065FC01208DF81000FF
:101CD0002120ADF8000000208DF802008748019017
:101CE00014B16079032804D04FF0FF3010B0BDE884
:101CF000F08128680290306803900594804807902E
:101D00008048089080480C900D90CDF818D0784805
:101D10000068006902A942683846904780467549C4
:101D20000298086002984030029003984030039077
:101D3000764902980860029840300290039840303B
:101D4000039002982860039830604046CEE710B5B3
:101D5000674800680068C1686D480068884710BD22
:101D60002DE9F04106460F46144600BF5F48006863
:101D70000028FBD13E2C00DD3E24FF2C00DDFF249B
:101D8000624800680670614909684C70002505E0EA
:101D9000795D5E480268A81C11546D1CA542F7DBF2
:101DA0000120524908605248006800684023D0F87A
:101DB00050C056488121026855480068E047BDE898
:101DC000F0814D49086070472DE9F04780460F4685
:101DD00015463E2600240CE0281BB04201D3B14634
:101DE00001E0A5EB040939194A464046FFF7B8FF60
:101DF0003444AC42F0D3BDE8F087F0B59DB0002686
:101E00000123402203210620FEF7FCFD12210720BA
:101E1000FFF755F901211220FFF78BF907203D4903
:101E200008603D48406820F020003B4948603B483E
:101E300000682F49086044210CA803F0ABFB384828
:101E40000C904FF000500D9000140E9002208DF871
:101E50003C00182101A803F015FB4027002406E0F0
:101E600001A8005D07EB44012E4A5054641C182C55
:101E7000F6DB2D4807902B4808902C480A902C48F8
:101E800009902C480B901A48006800680CAA07A912
:101E900043681F489847064616BB1D480568124907
:101EA000A86D08602448A8650EAB0DAA2049093129
:101EB00017480068FFF7FCFE06468EB9082001218E
:101EC00081404209920002F1E022C2F8001100BFF5
:101ED000074800680068012182680D480068904743
:101EE0001DB0F0BD40010810440108103C0108106D
:101EF000300108103801081058000810D869001087
:101F00002D1C0010351C00103D1C00103401081061
:101F10002C01081000180540003004401C0140103E
:101F200000600040B2000810FC6900105C0008105E
:101F300088000810106A0010ED1B00103348344967
:101F400008600846006833490860704710B50446C9
:101F50002F480068047003F0CBF82F4908802C4804
:101F60000068401C2A4908602C49884202D1274851
:101F700027490860264800682649096888420DD12B
:101F800001202749086023480068401C2149086057
:101F90002249884202D11D481E49086010BD2049CF
:101FA000086800211E4A116070471B48008870476E
:101FB00072B6164816490860084600681549086058
:101FC00062B6704713480168114802688A4201D01E
:101FD000012070470020FCE730B501460D4803683A
:101FE0000B480468A34201D1002030BD09480268B3
:101FF0000068401C074D2860084DA84202D10348E4
:10200000044D2860107808700120EEE73C030810AA
:10201000480108104C0108105401081094050810DC
:10202000500108100FB410B59AB0F7480068B0B16D
:102030001DA819906846199A1C9903F0C5FD04461D
:1020400000201990F148006820B121466846EF4A07
:102050001268904720461AB010BC5DF814FB0020AF
:10206000F9E7FEB503460C460FF2A43C9CE8C0100D
:102070008DE8C01021461D4600BF491C0A2695FB6D
:10208000F6F50F1B561EB74200DB01E0002DF4D120
:1020900000BF00260E70084600BF491EA14200D2B4
:1020A00012E00A26B3FBF6F706FB17361DF80660AA
:1020B0000E700E78302E01D1067806B908460A2631
:1020C000B3FBF6F3002BE8D100BFFEBD2DE9F041D4
:1020D00007464FF00008002500BFD04850F83500F3
:1020E000B84215D1CD4800EBC5004668CC4C03E0A2
:1020F00016F8010B04F8010B30780028F8D10D20F8
:1021000004F8010B0A2004F8010BC548A4EB0008F1
:102110006D1CC24800EBC50040680028DDD1B8F155
:10212000000F08D0BF48006828B14246BC490020D3
:10213000BC4B1B689847BDE8F0812DE9F04105468E
:102140000C4695F800800027B7480068B8B1002613
:1021500003E0A85DB2498855761CA642F9DB0D2044
:10216000AF4908550A21AE4A601C1154AD480068B9
:1021700028B1A21CAA490020AA4B1B689847012C31
:1021800004DD6878202801D16D1C641E00BFA748BB
:1021900010F83700404508D1611EA44800EBC70085
:1021A0004268681C9047BDE8F0817F1C9F4800EBA7
:1021B000C70040680028EAD10120FFF787FF00BF71
:1021C000F1E710B500209A49086002F0ADF870B947
:1021D00002F0ADF80446002C22DA40F24F122146FC
:1021E00094A0FFF71FFF0120FFF770FF10BD02F062
:1021F0002DFE0446002C13DA4FF4AD719AA0FFF7C0
:1022000011FF02F094F80446002C09DA4FF4AF7283
:10221000214688A0FFF706FF0120FFF757FFE5E7FB
:102220003F207F4908707F48006820B101220020CC
:102230007C4B1B68984700BFD8E72DE9F047044660
:102240000F461346D3F8009000252246A4460026E8
:10225000A84647E01078202802D0107800283DD109
:1022600094453BD2614628E00878202801D00878C0
:1022700000B921E0087830280BDB0878392808DC21
:1022800006EB860046000878303806444FF0010817
:1022900011E00878412803D100264FF001080AE038
:1022A0000878542803D101264FF0010803E00020EC
:1022B0001860BDE8F08700BF491C9142D4D3B8F143
:1022C000000F07D028466D1C47F8206000264D45BA
:1022D00000D108E04FF0000802F1010C107800B9BD
:1022E00001E0521CB6E700BF1D600120E1E77CB5AC
:1022F00005460C460120009000204D490860052C41
:1023000003D00C20FFF7E2FE7CBD6A4601A92846F7
:10231000FFF793FF18B90C20FFF7D8FEF4E745F656
:102320005A210198884202D01020FFF7CFFE0020EA
:10233000FFF7CCFE01203E49086000BFE4E770B51E
:1023400004460D460020FFF7C1FE70BD70B586B093
:1023500005460E460420019001AA02A92846FFF76F
:102360006CFF20B90C20FFF7B1FE06B070BD0198DC
:10237000042802D00C20FFF7A9FE0598012815D1EA
:1023800048A0FFF74FFE01F0CFFF002811D101F068
:10239000CEFF0446002C0CDA4FF4DB72214625A058
:1023A000FFF740FE0120FFF791FEDEE748A0FFF7B0
:1023B00039FE53A0DDE902230499FFF733FE02A89A
:1023C00007C802F030FF01205A4908600020FFF7DB
:1023D0007DFE00BFC9E770B504460D46012D03D050
:1023E0000120FFF773FE70BD2078302803D1002054
:1023F0000D49086002E001200B4908600020FFF74A
:1024000065FE00BFEFE700006006081064010810D9
:102410003031323334353637383930002C02081039
:10242000F905081060010810680108108C010810F7
:10243000700108105357442028636F6E66696775F2
:1024400072652920696E7465726E616C20657272A6
:102450006F7220636F646520307825382E386C5891
:1024600020282564290A00004661696C656420748F
:102470006F2068616C7420636F72652C20617373C8
:10248000756D696E67206E6F7420616C7265616432
:102490007920636F6E6669677572656420282564AC
:1024A000290A000053574420696E697420726571CF
:1024B00075657374656420696E20706173737468E8
:1024C000726F75676820636F6D6D616E640A0000DE
:1024D00053574420696E6974206E6F742072657161
:1024E00075657374656420696E20706173737468B8
:1024F000726F75676820636F6D6D616E640A0000AE
:102500002564206D61696C626F78657320757369ED
:102510006E672052414D206C6F63732030782538F0
:102520002E386C5820616E6420307825382E386C37
:10253000580A0000E80208103EB504460D46022085
:1025400000906A4601A92046FFF777FE18B90C20D3
:10255000FFF7BCFD3EBD0098022802D00C20FFF71B
:10256000B5FD0298B0F5806F02DD0C20FFF7AEFDDF
:10257000F84901980860F84902980860F748F84956
:1025800008600020F7490860F74908600120F74912
:1025900008600020FFF79AFD00BFDBE73EB5044668
:1025A0000D46022000906A4601A92046FFF745FE2D
:1025B00018B90C20FFF78AFD3EBD0098022802D012
:1025C0000C20FFF783FD0298B0F5806F02DD0C2030
:1025D000FFF77CFD0020FFF779FDDE4901980860D8
:1025E000DD4902980860DD48DD4908600020DD49CA
:1025F00008600220DD49086000BFDDE7F0B58BB060
:1026000006460F4604200A90142105A802F0C2FFD6
:102610001421684602F0BEFF0AAA06A93046FFF759
:102620000CFE20B90C20FFF751FD0BB0F0BD32209D
:102630000590694605A801F0F8FC0446002C07DA6D
:102640002146CBA0FFF7EEFC0120FFF73FFDECE7B2
:10265000009D1DB12846FFF739FDE6E72846FFF744
:1026600035FD00BFE1E7F0B58DB006460F4604200A
:102670000C90182106A802F08DFF1821684602F080
:1026800089FF0CAA07A93046FFF7D7FD20B90C2017
:10269000FFF71CFD0DB0F0BDBF4806AA41680C98BD
:1026A000401C42F82010BD48006810B90F20FFF709
:1026B0000DFD33200690694606A801F0B6FC0446DD
:1026C000002C07DA2146B6A0FFF7ACFC0120FFF78B
:1026D000FDFCDFE7009D1DB12846FFF7F7FCD9E7B9
:1026E0002846FFF7F3FC00BFD4E72DE9FE43074679
:1026F0008846022000906A4601A93846FFF79DFDF2
:1027000020B90C20FFF7E2FCBDE8FE830098022808
:1027100002D00C20FFF7DAFC019D029E32462946CA
:10272000AAA0FFF77FFC3146284602F0D9FB0446F9
:102730003CB12146AFA0FFF775FC0120FFF7C6FCB6
:10274000E2E70020FFF7C2FC00BFDDE7FEB506466A
:102750000F46022000906A4601A93046FFF76DFD42
:1027600018B90C20FFF7B2FCFEBD0098022802D079
:102770000C20FFF7ABFC019D8848006810B90F20C2
:10278000FFF7A4FC2946A5A0FFF74CFC284601F062
:1027900028FB0446002C07DA2146ACA0FFF742FCD8
:1027A0000120FFF793FCDFE700BFDDE7F0B58DB058
:1027B00006460F4604200C90182106A802F0EAFEF7
:1027C0001821684602F0E6FE0CAA07A93046FFF77A
:1027D00034FD20B90C20FFF779FC0DB0F0BD0C984A
:1027E00003280FD106A80C9950F8211006AA0C98BE
:1027F000401C42F820106848406806A90C9A41F82D
:10280000220006E0644806AA41680C98401C42F881
:1028100020106248006810B90F20FFF757FC3420E1
:102820000690694606A801F000FC0446002C07DA71
:10283000214690A0FFF7F6FB0120FFF747FCCCE70D
:10284000009D1DB12846FFF741FCC6E72846FFF76B
:102850003DFC00BFC1E770B504460D4690480068D6
:1028600028B12A46214600208D4B1B68984770BD31
:10287000F0B58DB00546182107A802F08BFE18218F
:1028800001A802F087FEEFB204213448FFF7E3FF0E
:1028900051200790089740488068099001A907A82F
:1028A00001F0C3FB0646002E08DA31467DA0FFF793
:1028B000B9FB0120FFF70AFC0DB0F0BD019C1CB173
:1028C0002046FFF703FCF7E72046FFF7FFFB00BFBA
:1028D000F2E72DE9F04190B00746884602200F90BC
:1028E00000200D900E90182107A802F053FE182129
:1028F00001A802F04FFE0FAA0DA93846FFF79DFC74
:1029000028B90C20FFF7E2FB10B0BDE8F0810F986A
:10291000022803D00C20FFF7D9FBF5E70E9D072D09
:1029200003DD0C20FFF7D2FBEEE70D9800280ED157
:1029300050200790089518488068099001A907A8B9
:1029400001F073FB0446002C02DA2146BEE0DEE013
:10295000C3E0000078010810740108106C0708102B
:102960007C01081080010810880108106C01081013
:1029700053574420707265702073637472732069BA
:102980006E7465726E616C206572726F7220307841
:1029900025382E386C580A0060060810700108109F
:1029A000535744206370792072616D20666C6173A7
:1029B0006820696E7465726E616C206572726F72E8
:1029C00020307825382E386C580A0000536574740E
:1029D000696E672072656720617420307825382E13
:1029E000386C5820746F20307825382E386C580A8F
:1029F000000000004661696C656420746F20777286
:102A000069746520746F207265672E205265737536
:102A10006C74203D2025640A00000000537461722C
:102A200074696E6720657865637574696F6E20667A
:102A3000726F6D2076656374207461626C652061CD
:102A40007420307825382E386C580A0053574420AB
:102A50006578656375746520696E7465726E616C06
:102A6000206572726F7220307825382E386C580AC3
:102A70000000000053574420657261736520736540
:102A800063746F727320696E7465726E616C206519
:102A900072726F7220307825382E386C580A000018
:102AA00060010810535744207772697465204641CD
:102AB000494D20696E7465726E616C206572726F2B
:102AC0007220307825382E386C580A00FBA0FFF7AA
:102AD000A9FA0120FFF7FAFA16E7019E1EB1304667
:102AE000FFF7F4FA10E73046FFF7F0FAFD48806888
:102AF000FD4908600420FD490860FD48FD49086063
:102B00000020FD4908600220FC4908601EE00E9884
:102B1000012818D10020FFF7D9FAF2488068F2495D
:102B200008600420F1490860F148F249086000207B
:102B3000F1490860F248F3490860F3480560012054
:102B4000EE49086002E00C20FFF7C0FA00BFDBE6A8
:102B5000F0B58DB006460F4604200C90182106A84B
:102B600002F018FD1821684602F014FD0CAA07A90E
:102B70003046FFF762FB20B90C20FFF7A7FA0DB033
:102B8000F0BDD84806AA41680C98401C42F82010B5
:102B9000DE48006810B90F20FFF798FA3B20069036
:102BA000694606A801F041FA0446002C07DA2146DE
:102BB000D7A0FFF737FA0120FFF788FADFE7009D7B
:102BC0001DB12846FFF782FAD9E72846FFF77EFABB
:102BD00000BFD4E770B506463546D84C03E015F87B
:102BE000010B04F8010B28780028F8D10D2004F817
:102BF000010B0A2004F8010BD148006830B1CF481E
:102C0000221A01460020CE4B1B68984770BD2DE963
:102C1000F0418EB00646884604200D90142105A888
:102C200002F0B8FC1421684602F0B4FC0DAA06A913
:102C30003046FFF702FB28B90C20FFF747FA0EB029
:102C4000BDE8F08135200590694605A801F0EDF951
:102C50000546002D07DA2946BAA0FFF7E3F901205F
:102C6000FFF734FAEBE7009C2CB1082C03D0204688
:102C7000FFF72CFAE3E72046FFF728FA082C0FD1DC
:102C80000B220AA90198FFF7ECF90746FFF7A2FF0C
:102C90000B220AA90298FFF7E4F90746FFF79AFF0B
:102CA00000BFCCE72DE9F0418EB080460E461421DE
:102CB00006A802F06FFC142101A802F06BFC2EB1F3
:102CC0000120FFF703FA0EB0BDE8F0813620069030
:102CD00001A906A801F0A9F90446002C07DA21464B
:102CE000A3A0FFF79FF90120FFF7F0F9EBE7019DA3
:102CF0001DB12846FFF7EAF9E5E72846FFF7E6F9B0
:102D00000B220BA90298FFF7ACF90746FFF762FF09
:102D100000BFD8E72DE9F0418EB080460E46142161
:102D200009A802F037FC142104A802F033FC2EB1EC
:102D30000120FFF7CBF90EB0BDE8F08137200990F4
:102D400004A909A801F071F90446002C07DA21460C
:102D500092A0FFF767F90120FFF7B8F9EBE7049DB0
:102D60001DB12846FFF7B2F9E5E72846FFF7AEF9AF
:102D70000B2201A90598FFF774F90746FFF72AFF10
:102D80000B2201A90698FFF76CF90746FFF722FF0F
:102D900000BFD0E72DE9F0418EB0064688460420FA
:102DA0000D90142108A802F0F5FB142103A802F0ED
:102DB000F1FB0DAA09A93046FFF73FFA28B90C200C
:102DC000FFF784F90EB0BDE8F0813820089003A920
:102DD00008A801F02AF90546002D07DA29467BA04C
:102DE000FFF720F90120FFF771F9EBE7039C2CB105
:102DF0000A2C03D02046FFF769F9E3E72046FFF7E6
:102E000065F90A2C07D10B2269460498FFF729F9C6
:102E10000746FFF7DFFE00BFD4E72DE9F0418EB093
:102E200007460E46142109A802F0B4FB142104A899
:102E300002F0B0FB2EB10120FFF748F90EB0BDE85B
:102E4000F0813A20099004A909A801F0EEF804469F
:102E5000002C07DA214667A0FFF7E4F80120FFF70E
:102E600035F9EBE7049D1DB12846FFF72FF9E5E79B
:102E70002846FFF72BF90B2201A90598FFF7F1F877
:102E80008046FFF7A7FE0B2201A90698FFF7E9F895
:102E90008046FFF79FFE0B2201A90798FFF7E1F894
:102EA0008046FFF797FE0B2201A90898FFF7D9F893
:102EB0008046FFF78FFE00BFC0E700005357442055
:102EC00072656164204641494D20696E7465726E79
:102ED000616C206572726F7220307825382E386CE4
:102EE000580A0000600608107801081074010810E4
:102EF0006C0708107C010810800108106C01081094
:102F00007128001088010810840108107001081051
:102F10005357442065726173652070616765732043
:102F2000696E7465726E616C206572726F722030AA
:102F30007825382E386C580A00000000F905081072
:102F40006001081053574420626C616E6B20636807
:102F500065636B20696E7465726E616C2065727258
:102F60006F7220307825382E386C580A0000000027
:102F700053574420726561642070617274206964E3
:102F800020696E7465726E616C206572726F72205A
:102F9000307825382E386C580A00000053574420EA
:102FA0007265616420626F6F74726F6D20766572F6
:102FB00020696E7465726E616C206572726F72202A
:102FC000307825382E386C580A00000053574420BA
:102FD000636F6D7061726520696E7465726E616C8D
:102FE000206572726F7220307825382E386C580A3E
:102FF00000000000535744207265616420756964C5
:1030000020696E7465726E616C206572726F7220D9
:10301000307825382E386C580A0000002DE9F04F22
:1030200091B081468B4604200E90142109A802F02D
:10303000B1FA142104A802F0ADFA0EAA0FA948466D
:10304000FFF7FBF828B90C20FFF740F811B0BDE8F6
:10305000F08F0E9801281CD13C20099000200A9086
:1030600004A909A800F0E1FF0446002C07DA214674
:10307000F5A0FEF7D7FF0120FFF728F8E6E7049D4B
:103080001DB12846FFF722F8E0E72846FFF71EF8B3
:10309000DCE70E98022802D00C20FFF717F80F9EED
:1030A0001098871906F0030018B10D20FFF70EF8ED
:1030B000CCE707F0030018B10620FFF707F8C5E7D3
:1030C0004FF000080020FFF701F80B2201A940464D
:1030D000FEF7C7FF8246FFF77DFD00BFB6E7E54874
:1030E000E54908600020E5490860704710B5FFF722
:1030F000F6FF0120E24908600020E2490860E24949
:103100000860E249086042F6E060486010BDE04AAD
:103110001060E04A1160704708B51B200090DE483F
:10312000006830B10121684602F0A7F80020DA49B2
:103130000860FEF73DFFFFF7D2FF0020D14908608D
:1031400008BD2DE9F047FEF730FF0746FEF727FFE1
:1031500048B1D2A0FEF766FFFEF72AFFFFF7BFFFD8
:103160000020C8490860FEF72DFF002874D0CA4827
:10317000006818B3BF48C04908600020BF49086014
:103180000EE0BD480068FEF727FF48B1BA48006866
:10319000401CB9490860B9480068401CB74908603C
:1031A000FEF710FF0028ECD1B4480068002804DDC9
:1031B000B2480168AF4802F060F8C8E0A1E0B14849
:1031C0000068002863D1AC480068FEF705FF0028BE
:1031D000F4D0AA480068401CA8490860A6480068C6
:1031E00000783F2808D108460068012804D1FEF77E
:1031F000E8FFFFF774FF84E09F48006800781B2811
:1032000008D19E480068012804D1FEF7D1FEFFF7DF
:1032100066FF76E09848006800780A281DD1974834
:103220000068022819DB9448006810F8010C0D288A
:1032300013D100209049096801F8010C8F480068FB
:10324000811E8C48FEF779FFFFF749FF8D48006823
:10325000002856D0BDE8F08759E088480068642807
:103260000FD10020834981F86400844801688148B7
:10327000FEF763FFFFF733FF82480068002840D065
:10328000E8E77D480068401C7B49086039E07D48DC
:103290000068012835D188480068FEF79DFE80B39C
:1032A00085480068401C8449086084480068401CC8
:1032B000824908600846006881490968884204D04C
:1032C0007E480068B0F5806F1BD17E4802687B485D
:1032D00001687D4801F0BEFD0546002D06DA29464D
:1032E0007AA0FEF79FFE0120FEF7F0FE82480068FC
:1032F00020B18248006880490968884700206149F8
:103300000860FEF75FFE00287FF459AF1FE042F22D
:103310001071394488B201F0EEFEC0B1594800681E
:1033200030B95848006890B95448006800280EDD4C
:1033300001F0DEFE81464B463A465248016870A0D5
:10334000FEF770FEFFF7CBFE00204E4908604D48A7
:103350000068022833D100242AE059480068001B85
:10336000B0F5806F02D34FF4806602E054480068E5
:10337000061B5448006802193146534801F08CFD81
:103380000546002D09DA29466BA0FEF74BFE012009
:10339000FEF79CFEFEF70CFE08E03D48006828B1F1
:1033A0003246494900203A4B1B68984704F580642F
:1033B000434800688442D0D3002032490860364830
:1033C000006888B108E03248006828B14246654983
:1033D00000202F4B1B6898474FF48071614801F023
:1033E000A1FEB0F10008EEDC00BF33E7274908601A
:1033F0007047382900DA70472722125C130626220C
:10340000125C43EA02432522125C43EA022290F84E
:1034100024301A431D4B5A601A46526812B942F6BC
:10342000E0625A603722125C13063622125C43EACD
:1034300002433522125C43EA022290F834301A43E8
:10344000124B9A6000BFD6E753574420736574202F
:10345000666C736820626E6B20696E7465726E6153
:103460006C206572726F7220307825382E386C5857
:103470000A00000094050810580108105C010810AB
:10348000680108106C01081070010810600608102F
:103490006001081064010810E802081052656365B5
:1034A00069766520627566666572206F76657266FC
:1034B0006C6F770A000000007C0108108001081082
:1034C00074010810780108106C0708105357442045
:1034D000636F707920746F2072616D20696E7465FE
:1034E000726E616C206572726F7220307825382E92
:1034F000386C580A00000000880108108401081088
:1035000052782074696D656F75742C206D6F6465D9
:103510002025642C206C6173743D2564206D732C10
:10352000206E6F773D2564206D732C20656D70745F
:10353000793D25640A000000535744207265616498
:10354000206D656D6F727920696E7465726E616C45
:10355000206572726F7220307825382E386C580AC8
:10356000000000006C0608100FB410B59AB0FC48BB
:10357000406AB0B11DA819906846199A1C9902F0CA
:1035800023FB044600201990F648006820B121462C
:103590006846F44A1268904720461AB010BC5DF89D
:1035A00014FB0020F9E710B520210520FEF71EFAD4
:1035B00040210520FEF716FA01F09AFDE849096856
:1035C000441800BFA0B201F096FD0028FAD010BD4B
:1035D00010B520210520FEF705FA40210520FEF751
:1035E00005FA01F085FDDE494968441800BFA0B224
:1035F00001F081FD0028FAD010BD10B5002308228B
:1036000006210120FDF7FEF9012251021046FEF7C6
:10361000D7F94FF480710120FEF7E4F910BD10B521
:103620004FF480710120FEF7E1F9002350220621BA
:103630000120FDF7E7F900224FF400710120FEF7A9
:10364000BFF910BD00BF011EA0F10100FBD1704702
:1036500010B504460FE00120FFF7F4FF4FF480514E
:103660000020FEF7BFF90220FFF7ECFF4FF4805176
:103670000020FEF7BBF9201EA4F10104EBD110BD20
:1036800010B504464FF400710120FEF7AFF9204653
:10369000FFF7DEFF4FF47A70FFF7D4FF10BD10B5CF
:1036A0004FF400710120FEF79DF93720FFF7D0FF9E
:1036B00010BD70B504460D46002612E004F001006E
:1036C00028B14FF400710120FEF78CF904E04FF4AB
:1036D00000710120FEF78AF964080120FFF7B8FFA6
:1036E000761CAE42EAD370BD2DE9F04707460E4680
:1036F00090464FF000090024FFF77FFF4FF4007160
:103700000120FEF76FF90120FFF7A2FF37B14FF458
:1037100000710120FEF766F9641C04E04FF40071AB
:103720000120FEF763F90120FFF792FFB8F1000FC7
:1037300006D04FF400710120FEF754F9641C04E038
:103740004FF400710120FEF751F90120FFF780FFCF
:1037500006F0010030B14FF400710120FEF742F98C
:10376000641C04E04FF400710120FEF73FF90120D2
:10377000FFF76EFF06F0020030B14FF40071012038
:10378000FEF730F9641C04E04FF400710120FEF7ED
:103790002DF90120FFF75CFF04F0010028B14FF480
:1037A00000710120FEF71EF904E04FF400710120C2
:1037B000FEF71CF90120FFF74BFF4FF400710120C9
:1037C000FEF714F90120FFF743FF4FF400710120C9
:1037D000FEF708F90120FFF73BFFFFF720FF01206C
:1037E000FFF736FF0120FEF706F9C0F34025012060
:1037F000FFF72EFF0120FEF7FEF8C0F3402000EB9C
:1038000045050120FFF724FF0120FEF7F4F8C0F37F
:10381000402000EB45050120FFF71AFF022D02D1E1
:103820006FF0630908E0012D02D16FF0640903E035
:10383000042D01D06FF065094846BDE8F0872DE9F9
:10384000F047804689461446002600270022494654
:103850004046FFF749FF0746002F02DA3846BDE829
:10386000F0870120FFF7F4FEFFF7C7FE00260025D2
:1038700013E004F0010030B14FF400710120FEF7B5
:10388000B1F8761C04E04FF400710120FEF7AEF8A9
:1038900064080120FFF7DCFE6D1C202DE9D306F043
:1038A000010028B14FF400710120FEF79BF804E0FD
:1038B0004FF400710120FEF799F80120FFF7C8FED0
:1038C0000A20FFF7DDFEFFF7AAFE0020C7E72DE97B
:1038D000F04781468A46154600270026B046012259
:1038E00051464846FFF700FF8046B8F1000F02DA64
:1038F0004046BDE8F087002600240DE00120FEF7D9
:103900007AF8C0F3402018B10120A0400743761C8C
:103910000120FFF79DFE641C202CEFD30120FEF751
:103920006AF8C0F3402000B1761C4FF4007101200A
:10393000FEF75CF8FFF761FE0A210020FFF7B9FEF1
:103940004FF47A70FFF77EFE05B12F6006F001009C
:1039500008B16FF06608FFF762FE4046C9E7000055
:103960006C0B0810DC0208102DE9F04105460F46EB
:103970000026052D03D16FF06700BDE8F08100241B
:1039800014E04CB106F1650020B91E210020FFF7BC
:10399000EBFF01E03046F0E7A9083A460020FFF7C8
:1039A0004EFF0646002E00DB02E0641C032CE8D329
:1039B00000BF3046E1E72DE9F04105460F460026FD
:1039C000052D03D16FF06700BDE8F081002414E0FD
:1039D0004CB106F1650020B91E210020FFF7C4FF9D
:1039E00001E03046F0E7A9083A460020FFF76FFFF4
:1039F0000646002E00DB02E0641C032CE8D300BF67
:103A00003046E1E7F8B506460C461746002500208B
:103A10000090009866F31F6000902109009861F300
:103A20000710009008200099FFF79EFF054605F15A
:103A3000650018B91E210020FFF796FF002D01DA5E
:103A40002846F8BD3A46C4F381010120FFF7F7FE8E
:103A500005462846F5E7F8B505460C461646002704
:103A600000200090009865F31F60009021090098E5
:103A700061F30710009008200099FFF775FF0746D3
:103A80003246C4F381010120FFF721FF0746324689
:103A900003210020FFF71BFF07463846F8BD70B52D
:103AA00004460D46002624F0030422460421F7486C
:103AB0000078FFF7A7FF0646002E01DA304670BDFA
:103AC0002A460C21F1480078FFF79CFF0646304655
:103AD000F5E7F8B504460D46002624F00304224617
:103AE0000421EA480078FFF78DFF0646002E01DA30
:103AF0003046F8BD6A460C21E4480078FFF7ABFF7A
:103B0000064605B12E600098F3E72DE9F041044622
:103B10000F469046002524F0030422460421DB488A
:103B20000078FFF76FFF0546002D02DA2846BDE852
:103B3000F08100260CE03A463F1D0C21D348007866
:103B4000FFF789FF0546002D00DA03E0241D761CEF
:103B50004645F0D300BF2846E9E770B50546002684
:103B60000021CB48FFF7B5FF04464FF6FE70044036
:103B700025B124F00804C748044302E0C548401EAC
:103B800004432146C248FFF78AFF0646304670BD0F
:103B900070B501F0ADFA0546BF49BD48E438FFF7FE
:103BA0007EFF044600BF0021B948FFF792FF04469C
:103BB000BA490989294488B201F09DFA10B16FF021
:103BC000630070BD04F000700028ECD00020F8E71E
:103BD00010B50024AF49AE48FFF761FF0446002C42
:103BE00001DA204610BD2046FCE710B50024A949A3
:103BF000091DA748FFF753FF0446002C01DA2046B1
:103C000010BD2046FCE770B5002401F071FA0646AD
:103C1000A0490A319E48FFF742FF0446002C01DA12
:103C2000204670BD00BF00219948FFF752FF0546AE
:103C30009A490989314488B201F05DFA10B16FF0F8
:103C40006300EEE705F40030B0F5003FEBD120460D
:103C5000E7E738B569468E48FFF73BFF0446009812
:103C6000002801DA002038BD04F4003008B101203A
:103C7000F9E70020F7E710B501F03AFA044609E049
:103C800086490989214488B201F035FA10B16FF0F4
:103C9000630010BDFFF7DDFF0028F1D00020F8E73A
:103CA00070B504460D460026294679480830FFF7CE
:103CB000F6FE064644F480317548001DFFF7EFFE1E
:103CC0000646304670BD70B504460D462146704824
:103CD000001DFFF7E4FE29466D480830FFF7F9FEA6
:103CE0000646304670BD6E490860704710B5002327
:103CF000102206210120FCF785FE00231022052159
:103D00000120FCF77FFE0023102211210120FCF787
:103D100079FE0423102205210220FCF773FE042300
:103D2000102206210220FCF76DFE002310220B2139
:103D30000220FCF767FE0423102203210220FCF777
:103D400061FE012211021046FDF73AFE0122110325
:103D50000020FDF735FE012220210520FDF730FE71
:103D6000012240210520FDF72BFE012251021046C1
:103D7000FDF726FE0122D1021046FDF721FE0122A9
:103D800008210520FDF71CFE0020464908604FF47D
:103D900000610120FDF726FE08210520FDF722FE27
:103DA000FFF716FC03203D49086048604FF4FA60B5
:103DB00088603D48C8603C48283008613A4818305F
:103DC00048613A4888613A48C86104200862002086
:103DD0008862C862086301204863002088634862E3
:103DE00010BDF8B50446FFF70EFF009000980028BC
:103DF00007DA4FF47D722FA00099FFF7B5FB00980A
:103E0000F8BD012122480C30FFF749FE00900098D0
:103E1000002807DA4FF47F722EA00099FFF7A4FB69
:103E20000098EDE7FFF7B4FE0090009800280EDA46
:103E300040F2034230A00099FFF796FB174840F28A
:103E40000442816835A0FFF78FFB0098D8E7FFF7A1
:103E500012FF00900098002806DA40F20D4139A0C8
:103E6000FFF782FB0098CBE74FF0807108480C30D9
:103E7000FFF715FE00900098002876DA40F2154210
:103E800014A00099FFF770FB0098B9E7E40208104E
:103E9000F0ED00E001005FA00400FA056C0B0810D3
:103EA000DC020810E002081008000002040200030F
:103EB000FC0100024661696C656420746F206861D2
:103EC0006C7420636F7265202D2025642028256482
:103ED000290A00004661696C656420746F2077725E
:103EE0006974652044454D4352202D2025642028C7
:103EF0002564290A00000000436F72652064656232
:103F00007567207265736574206661696C656420ED
:103F10002D20256420282564290A00005265736538
:103F200074206469646E27742068617070656E2007
:103F300077697468696E202564206D732028256474
:103F4000290A00004661696C656420746F207761FE
:103F5000697420666F7220636F72652068616C748B
:103F600020282564290A0000FFE769462046FFF75C
:103F7000B0FD06460098002808DA40F21D432146AD
:103F8000F4A0009AFFF7F0FA009839E73146FCA058
:103F9000FFF7EAFA31460D20FFF782FE0090009805
:103FA000002807DA40F22442FCA00099FFF7DCFA6F
:103FB000009825E76946201DFFF78BFD0546009810
:103FC000002808DA40F22C43211DE2A0009AFFF7F6
:103FD000CBFA009814E72946F7A0FFF7C5FA29465F
:103FE0000F20FFF75DFE00900098002807DA40F2EE
:103FF0003342F8A00099FFF7B7FA009800E7FCA059
:10400000FFF7B2FA0020FE490860FFF7E1FD0090DB
:104010000098002807DA4FF48C62FAA00099FFF7A5
:10402000A3FA0098ECE60098EAE62DE9FC4707467B
:104030008846002001900090FFF71DFE0190019836
:10404000002808DA40F27F41AFF20810FFF78CFA3F
:104050000198BDE8FC8701A91020FFF734FE064651
:104060000198002806DA40F28741EFA0FFF77CFABA
:104070000198EEE706F01F00032807D140F28C41BB
:10408000F0A0FFF771FA6FF06400E2E7F848C16949
:104090001120FFF705FE01900198002808DAF44886
:1040A00040F29442C169F3A0FFF75EFA0198D0E7AD
:1040B000EF48C568002411E000212846FFF7EFFC17
:1040C00001900198002807DA40F29F422946F3A0A8
:1040D000FFF74AFA0198BCE72D1D641C052CEBDBA9
:1040E000E3480569002419E034B94FF0FF31284650
:1040F000FFF7D5FC019004E000212846FFF7CFFC34
:1041000001900198002807DA40F2AE422946E3A068
:10411000FFF72AFA01989CE72D1D641C052CE3DBB0
:10412000D348C568002412E057F824102846FFF74A
:10413000B6FC01900198002807DA40F2BB422946FC
:10414000D6A0FFF711FA019883E72D1D641C052CFA
:10415000EADBC748C1680020FFF7A2FD0190019883
:10416000002808DAC24840F2C542C168D5A0FFF76E
:10417000FBF901986DE7BE4801690120FFF790FD4A
:1041800001900198002808DAB94840F2CB42016951
:10419000D5A0FFF7E9F901985BE7B5484069411CF4
:1041A0000E20FFF77DFD01900198002809DAB04844
:1041B0004069411C40F2D342D4A0FFF7D5F90198E1
:1041C00047E7AB494869DA49FFF769FC0190019874
:1041D000002808DAA64840F2DC424169D5A0FFF782
:1041E000C3F9019835E7A2488069B0B1A048816958
:1041F000DBA0FFF7B9F99E4881690F20FFF750FD5A
:1042000001900198002833DA994840F2F64281691A
:10421000DDA0FFF7A9F901981BE79548816AE3A0A3
:10422000FFF7A2F99249886A01A9FFF752FC0546F7
:104230000198002808DA8E4840F20452816AE9A009
:10424000FFF792F9019804E72946C5A0FFF78CF91A
:1042500029460F20FFF724FD01900198002807DA76
:104260004FF4A2622946C8A0FFF77EF90198F0E654
:10427000FFF7AEFC01900198002806DA40F21951D0
:10428000E2A0FFF771F90198E3E6FFF7F4FC019073
:104290000198002812DA40F22151AFF25830FFF7AE
:1042A00063F9FFF7B0FC69460F20FFF70CFD81466C
:1042B0004946DDA0FFF758F90198CAE66C48056940
:1042C000002412E001A92846FFF703FC48F8240067
:1042D0000198002807DA40F231522946DBA0FFF7A7
:1042E00043F90198B5E62D1D641C052CEADB019805
:1042F000AFE610B58AB0142105A801F04BF91421DE
:10430000684601F047F931200590694605A8FFF796
:104310008CFE0446002C05DA2146D4A0FFF724F9D0
:104320000AB010BD00BFFBE7354800687047FEB516
:104330000020029000254FF400610120FDF756FB9C
:1043400008210520FDF752FBD3A0FFF70DF9FFF779
:104350002AF9ADE14661696C656420746F2072656D
:104360006164206164647265737320307825382E2F
:10437000386C58202D20256420282564290A000047
:104380004C6F6164696E67205350207769746820B0
:10439000307825382E386C580A0000004661696C68
:1043A000656420746F20736574205350202D202580
:1043B0006420282564290A004C6F6164696E6720B7
:1043C0005043207769746820307825382E386C582F
:1043D0000A0000004661696C656420746F20736593
:1043E00074205043202D20256420282564290A00AC
:1043F000526573756D696E6720636F72650A0000A0
:10440000E00208104661696C656420746F20726573
:1044100073756D6520636F7265202D2025642028DB
:104420002564290A000000004661696C65642074F7
:104430006F20726561642050535220282564290A38
:1044400000000000436F726520697320696E206868
:104450006172642D6661756C742C2063616E2774C3
:10446000207573652049415020282564290A0000E1
:104470006C0B08104661696C656420746F2073656D
:10448000742074686520535020746F20307825386C
:104490002E386C5820282564290A00004661696C72
:1044A000656420746F20777269746520746F206C66
:1044B0006F6320307825382E386C582028256429E1
:1044C0000A0000004661696C656420746F207365A2
:1044D0007420523020746F20307825382E386C5874
:1044E00020282564290A00004661696C65642074EF
:1044F0006F2073657420523120746F203078253816
:104500002E386C5820282564290A00004661696C01
:10451000656420746F20736574204C5220746F2082
:10452000307825382E386C5820282564290A000058
:10453000AABEAABE4661696C656420746F2073656B
:104540007420307825382E386C5820746F203078DD
:10455000424541414245414120282564290A000045
:104560005573696E672049415020656E74727920D9
:1045700061646472657373206F6620307825382E0D
:10458000386C580A000000004661696C656420744C
:104590006F2073657420504320746F203078253865
:1045A0002E386C5820282564290A00005265616461
:1045B000696E672049415020656E7472792061648C
:1045C00064726573732066726F6D207461626C65CE
:1045D00020656E74727920617420307825382E3809
:1045E0006C580A004661696C656420746F207264BF
:1045F00020524F4D206472762074626C20307825F2
:10460000382E386C5820282564290A004661696CC8
:10461000656420746F20726573756D6520636F72B9
:104620006520282564290A00466F7263656420634B
:104630006F72652068616C742E205043203D2030DD
:104640007825382E386C580A000000004661696CE5
:10465000656420746F207265616420307825382E7F
:10466000386C5820282564290A000000535744203C
:1046700049415020696E697420636D6420696E74CD
:1046800065726E616C206572726F722030782538A9
:104690002E386C580A000000417373657274696E9D
:1046A00067207461726765742072657365740A00AF
:1046B000D1A0FEF759FFFEF78BFF0020D549086017
:1046C0004FF400610120FDF78DF908210520FDF769
:1046D00089F94FF480510020FDF788F94FF480519B
:1046E0000020FDF77FF94FF480510020FDF77EF99F
:1046F0004FF480510020FDF775F9FEF77EFFFEF7BD
:10470000CEFF10214EF29E70FEF7D3FFFEF7C7FFDB
:104710000C210020FEF7CDFF01AA00210846FFF77B
:10472000D6F802900298002805DABBA00299FEF79D
:104730001BFF0298FEBD1E2200210846FFF77FF8EE
:1047400002900298002805DABAA00299FEF70CFF41
:104750000298EFE7BE4A01210020FFF770F80290AF
:104760000298002805DABBA00299FEF7FDFE029828
:10477000E0E70020BE49087022E06A46FC21BC4800
:104780000078FFF768F902900298002809DA40F2F1
:10479000B153B7480178B7A0029AFEF7E5FE029838
:1047A000C8E7B3480178BCA0009AFEF7DDFE009888
:1047B00008B1012508E0AE480078401CAC490870FB
:1047C000AB4800780228D8DB00BF3DB940F2BD51AC
:1047D000B6A0FEF7C9FE6FF06500ABE7A44801780C
:1047E000BDA0FEF7C1FEC14A0021A1480078FFF735
:1047F00009F902900298002805DABDA00299FEF797
:10480000B3FE029896E70120FFF7A7F902900298FD
:10481000002805DABDA00299FEF7A6FE029889E7F6
:104820000121C248FFF73BF902900298002805DAFF
:10483000BFA00299FEF798FE02987BE7FFF7A8F960
:104840000290029800280ADAC1A00299FEF78CFEB5
:10485000C7488168C7A0FEF787FE02986AE7FFF79E
:104860000AFA02900298002804DACBA0FEF77CFE38
:1048700002985FE74FF08071AC48FFF710F90290A3
:104880000298002805DACDA00299FEF76DFE029885
:1048900050E702A90F20FFF716FA06463146CFA0CF
:1048A000FEF762FEB248406B002879D0B048016A3A
:1048B000D3A0FEF759FEAE48016ADD48FFF7EFF8D6
:1048C00002900298002805DADAA00299FEF74CFE61
:1048D00002982FE70021D648001DFFF7E0F802906C
:1048E0000298002805DADCA00299FEF73DFE029846
:1048F00020E740F60501CE480830FFF7D0F80290D7
:104900000298002805DADDA00299FEF72DFE029834
:1049100010E7FFF79EF918B1E1A0FEF725FE02E0CF
:10492000E4A0FEF721FEFFF753F902900298002859
:1049300005DAE6A00299FEF717FE0298FAE6FFF7FD
:1049400088F918B1E9A0FEF70FFE02E0ECA0FEF72F
:104950000BFEFFF790F902900298002804DAEEA00F
:10496000FEF702FE0298E5E602A90F20FFF7ABF979
:1049700006467F483246016AF0A0FEF7F5FD0021A9
:10498000AB480830FFF78BF802900298002807DA4E
:1049900000E005E0F4A00299FEF7E6FD0298C9E602
:1049A00000216248FFF77BF802900298002805DAA0
:1049B000F6A00299FEF7D8FD0298BBE66C48C169E3
:1049C0001120FFF76DF902900298002805DAF7A090
:1049D0000299FEF7C9FD0298ACE669460020FEF791
:1049E000EAFF02900298002805DAFAA00299FEF781
:1049F000BBFD02989EE6FBE14465617373657274CA
:104A0000696E67207461726765742072657365747E
:104A10000A000000E00208105357442072657365D5
:104A200074206661696C6564202D2025642028311E
:104A3000290A00005357442072657365742066612B
:104A4000696C6564202D202564202832290A000025
:104A500001000050535744207265736574206661ED
:104A6000696C6564202D202564202833290A000004
:104A7000E40208104661696C656420746F207265F9
:104A800061642041502564204944202D2025642064
:104A9000282564290A00000041502564204944204B
:104AA0003D20307825382E386C580A004661696CF4
:104AB000656420746F2066696E6420636F72652080
:104AC0006F6E20616E2061636365737320706F7217
:104AD0007420282564290A005573696E6720636F66
:104AE0007265206F6E20415025640A001200002379
:104AF000535744207265736574206661696C656400
:104B0000202D202564202834290A0000436F726577
:104B100020646562756720656E61626C6520666100
:104B2000696C6564202D2025640A0000FCED00E01E
:104B30004661696C656420746F20777269746520C2
:104B400044454D4352202D202564202831290A0058
:104B5000436F726520646562756720726573657462
:104B6000206661696C6564202D2025640A000000C0
:104B70006C0B08105265736574206469646E277449
:104B80002068617070656E2077697468696E202591
:104B900064206D730A0000004661696C65642074CE
:104BA0006F207761697420666F7220636F72652071
:104BB00068616C74202833290A0000004661696C22
:104BC000656420746F2077726974652044454D4395
:104BD00052202D202564202832290A005265736551
:104BE0007420696E746F20626F6F74726F6D2E2007
:104BF0005043203D20307825382E386C580A00006C
:104C000053657474696E672072642077746368708A
:104C10006E7420666F7220726573657420766563AA
:104C2000746F7220307825382E386C580A000000D6
:104C3000201000E04661696C656420746F20777213
:104C4000697465204457545F434F4D5030202D20E8
:104C50002564202831290A004661696C6564207446
:104C60006F207772697465204457545F4D41534BF0
:104C700030202D202564202831290A004661696CE6
:104C8000656420746F207772697465204457545F9F
:104C900046554E4330202D202564202831290A0016
:104CA000436F72652069732068616C7465642028A5
:104CB00031290A00436F7265206973206E6F74207A
:104CC00068616C746564202831290A00436F72653D
:104CD00020646562756720726573756D6520666115
:104CE000696C6564202D2025640A0000436F72659D
:104CF0002069732068616C746564202832290A0079
:104D0000436F7265206973206E6F742068616C74E4
:104D10006564202832290A004661696C6564207444
:104D20006F207761697420666F7220636F726520EF
:104D300068616C74202834290A00000048697420D6
:104D400072642077746368706E74206174203078A8
:104D500025382E386C582E205043203D20307825A1
:104D6000382E386C580A00004661696C65642074FE
:104D70006F207772697465204457545F46554E43DF
:104D800030202D202564202832290A004661696CD4
:104D9000656420746F2077726974652044454D43C3
:104DA00052202D202564202833290A00436F726584
:104DB0002064656275672077726974652072656723
:104DC0006973746572206661696C6564202D2025A5
:104DD000640A00004944434F4445207265616420E1
:104DE0006661696C6564202D2025640A000000005E
:104DF00094A00099FEF7B8FB02A91020FEF763FF0C
:104E000004460298002805DA93A00299FEF7ACFB4D
:104E100002988FE404F01F00032805D194A0FEF748
:104E2000A3FB6FF0640085E49DA0FEF79DFBA44802
:104E3000806B20B1A3A0FEF797FBFFF75AFA029808
:104E400010B90120A6490860029873E410B5FEF776
:104E5000DAFE10BD2DE9F04780460C469146E11779
:104E600004EB91718910A4EB810119B16FF001007D
:104E7000BDE8F0874746002509E002CF09EB0500B1
:104E8000FEF70DFE0646002E00DA02E02D1DA542BB
:104E9000F3DB00BF3046EBE72DE9F04105460C4659
:104EA0001646E11704EB91718910A4EB810119B149
:104EB0006FF00100BDE8F0812746E01704EB907029
:104EC000821029463046FEF720FEF3E738B5054646
:104ED0000C4669462846FEF7FCFD2060009838BD68
:104EE00070B504460D4629462046FEF7D8FD064615
:104EF000304670BD382900DA7047C27812068378D0
:104F000042EA0342437842EA032203781A436C4B95
:104F10001A60C2791306827943EA0243427943EA6E
:104F2000022203791A43664B5A60C27A1306827AC8
:104F300043EA0243427A43EA0222037A1A43604B6D
:104F40009A60C27B1306827B43EA0243427B43EAB8
:104F50000222037B1A435A4BDA60C27C1306827C1E
:104F600043EA0243427C43EA0222037C1A43544B45
:104F70001A61C27D1306827D43EA0243427D43EA01
:104F80000222037D1A434E4B5A61C27E1306827E73
:104F900043EA0243427E43EA0222037E1A43484B1D
:104FA0009A61C27F1306827F43EA0243427F43EA4B
:104FB0000222037F1A43424BDA612322125C13065A
:104FC0002222125C43EA02432122125C43EA0222BB
:104FD00090F820301A433A4B1A622B22125C1306C7
:104FE0002A22125C43EA02432922125C43EA02228B
:104FF00090F828301A43324B9A622F22125C130623
:105000002E22125C43EA02432D22125C43EA022262
:1050100090F82C301A432A4B5A633322125C130641
:105020003222125C43EA02433122125C43EA02223A
:1050300090F830301A43224B9A6300BF5CE7204956
:10504000486270474944434F44453A2030782538F8
:105050002E386C580A00000050535220726561646B
:10506000206661696C6564202D2025640A000000BB
:1050700043616E277420696E6974616C697A65207A
:10508000535744202D20636F726520697320696E29
:1050900020686172642D6661756C740A00000000FE
:1050A00053574420636F6E66696775726174696FE8
:1050B0006E207375636365656465640A00000000B3
:1050C0006C0B081043616C6C696E6720494150207D
:1050D000696E697420636F6D6D616E640A00000013
:1050E000E00208100E480088401C0D4908807047F7
:1050F0000B48008870470146094802888A4207DB4E
:10510000501AB0F5004F01DA012070470020FCE78B
:10511000881AB0F5004F01DB0120F6E70020F4E724
:10512000E60208102DE9F84F8246894669468F4805
:105130000068FFF7CBFE074637B139468CA0FCF775
:1051400071FF0020BDE8F88F0098012801D00020F1
:10515000F8E7694685480068001DFFF7B7FE074677
:105160002FB1394682A0FCF75DFF0020EAE7009CE2
:10517000002C32DD4C4500DD4C4626463046F1170A
:1051800006EB91718910A6EB81010E4455464FF054
:10519000000820E075490968083101EB08006946FC
:1051A000FFF794FE07462FB1394671A0FCF73AFF8E
:1051B0000020C7E7009805F8010B0098000A05F8E1
:1051C000010B0098000C05F8010B0098000E05F883
:1051D000010B08F10408B045DCDB002163480068DE
:1051E000FFF77EFE07462FB139466BA0FCF71AFF8A
:1051F0000020A7E75D48006800F5CC705B490860B7
:10520000084600686E490968401A4FF4CC71B0FB3B
:10521000F1F06C490968884203D369480068534932
:10522000086020468EE7F0B5C1B004460D4616462C
:10523000654804606248056062480660624800682C
:10524000624908605E4800684849086060A0FCF751
:10525000E9FE002707E04FF4807101A8FFF762FF25
:1052600000B904E07F1C574800688742F3D300BFB1
:1052700060A0FCF7D7FE41B0F0BD2DE9F04707462E
:105280000C46B4F5C87F01DD4FF4C87400214F48C7
:105290000068FFF725FE054635B129463EA0FCF71C
:1052A000C1FE0020BDE8F087214648480068001D87
:1052B000FFF716FE05462DB1294637A0FCF7B2FED2
:1052C0000020EFE72046E11704EB91718910A4EB71
:1052D00081010C444FF0080800261FE0F01C385CE8
:1052E0000106B01C385C01EB0041701C385C01EB1E
:1052F0000020B95D00EB01093449096801EB0800A1
:105300004946FFF7EDFD05462DB1294622A0FCF7E1
:1053100089FE0020C6E708F10408361DA642DDDB41
:1053200001212A480068FFF7DBFD05462DB129461B
:1053300019A0FCF777FE0020B4E72448006800F5C8
:10534000CC7022490860084600681F490968401A65
:105350004FF4CC71B0FBF1F01A490968884203D3CD
:10536000194800681949086001209BE7FC020810F1
:105370004661696C656420746F20726561642066A3
:10538000726F6D2052414D2E20526573756C7420E2
:105390003D2025640A0000004661696C6564207444
:1053A0006F20777269746520746F2052414D2E20F2
:1053B000526573756C74203D2025640A000000005E
:1053C000F0020810F4020810EC020810F8020810AD
:1053D000466C757368696E672052414D206D616936
:1053E0006C626F786573206F6E207461726765748C
:1053F0000A000000466C75736820636F6D706C6501
:105400007465640A000000002DE9F04F1646DDE9DE
:1054100009454FF0000C6246634615E0B75C00F0AA
:10542000FF0C8CEA070CDFF8EC8008EBCC0CDCE915
:1054300000894FEA102C4CEA016C88EA0C0089EADA
:105440001121521C43F10003171B73EB0507E5D331
:10545000BDE8F08F70B504460D46049E194600BFA6
:10546000B4FBF2F002FB1040285C01F8010BB4FB26
:10547000F2F4C81AB04200D101E0002CF0D100BF14
:10548000C81A70BD2DE9F0478CB0054688462E46F7
:105490002148D0F800A02148006805901F484068C6
:1054A00006901E48806807901C48C068089010212C
:1054B000002005AACDE900100146FFF7A5FFCDE9C0
:1054C0000201002402E000202855641C4445FADB58
:1054D00000271AE00A2002A90090C85909AB3C2213
:1054E0000F49FFF7B7FF814600240BE009A8005DD4
:1054F00006F8010B701B404503D130460CB0BDE8E7
:10550000F087641C4C45F1DB3F1D082FE2DB304681
:10551000F4E70000206A0010000140100050044031
:10552000000308102DE9F05F0546002092469B46D7
:1055300088460646814640241BE0284641464746A9
:10554000224600F048FA53465A46C01A914110D3F9
:1055500011461846224600F02FFA2D1A67EB010873
:105560004F4622460120002100F026FA17EB0009E1
:105570004E41201EA4F10104DFDC484631462A4694
:105580004346BDE8F09FD2B201E000F8012B491E6E
:10559000FBD270470022F6E710B513460A460446D0
:1055A0001946FFF7F0FF204610BD2DE9FE4F80465B
:1055B00081EA0300C00F0C46009021F0004123F067
:1055C0000045B8EB0200A94105D24046214690466D
:1055D0001C460B46024623F00040104347D0270DDF
:1055E000C7F30A00C3F30A510290401A0190402801
:1055F0006BDAC3F3130040F4801B0098924620B18D
:105600000023D2EB030A63EB0B0B01985946C0F160
:105610004002504600F0D0F906460D465046594625
:10562000019A00F0E8F910EB08006141002487EAD4
:10563000115284EAE7731A4340D0009A62B3019A88
:10564000012A4FEA075215DC001B61EB02014FF003
:10565000004202EA0752CDE90042001C41F58011E8
:1056600032462B4600F0E8F903B0BDE8F08F404623
:105670002146F9E7001B61EB0201001C41F5801394
:1056800000185B412018A2F5001747EB030140EA20
:10569000D570B6196D4111E06D084FEA360645EA3E
:1056A000C0754FEA0752001B61EB0201001C41F577
:1056B000801149084FEA30000019514132462B460B
:1056C00003B0BDE8F04F00F0A8B9009801224000F7
:1056D0000023D0EB020263EBE073009821464FEA0F
:1056E000E074B8EB000061EB0401E9E783F00043EC
:1056F0005BE781F0004158E72DE9FE4F81EA0304A2
:1057000004F0004421F0004100944FF0000B23F01E
:10571000004350EA01045ED052EA03045BD0C3F3B5
:105720000A54C1F30A552C44A4F2F3340194A0FBAB
:105730000254C1F3130141F48011C3F3130343F482
:10574000801301FB024400FB034E840A970A44EADB
:10575000815447EA8357A4FB076802958D0A05FB2D
:1057600007854FEA932C04FB0C542705029D4FEA52
:10577000065847EA1637B5EB08056EEB070C870E9F
:10578000920E47EA811742EA8312A7FB0201B6EBA9
:105790000B0164EB00042B0D43EA0C335E1844EB61
:1057A0001C50DA465146E7FB0201C5F313044FEAE9
:1057B0000B3343EA14534FEA0432019C43EA0603D5
:1057C000A4F10C040294009CCDE900B400F034F97B
:1057D00003B0BDE8F08F00200146F9E72DE9F04D58
:1057E00081EA030404F0004B21F0004514464FF019
:1057F000000A23F0004150EA050220D054EA0102D9
:105800001DD0C5F30A570246C5F31303C1F31300B5
:10581000C1F30A5640F4801543F48013A7EB060841
:10582000101BD64608F2FD3873EB050002D308F1D1
:10583000010801E092185B41B8F1000F03DA002083
:105840000146BDE8F08D00204FF4801106468446E5
:105850000EE0171B73EB050705D3121B63EB050363
:1058600006434CEA010C49084FEA300092185B41AC
:1058700050EA0107EDD152EA030012D082EA040097
:1058800083EA0501084305D0101BAB4106D2012273
:10589000002306E000224FF0004302E06FF0010217
:1058A00053101AEB06004CEB085110EB0A0041EBC9
:1058B0000B01BDE8F04D00F0B0B80EB540F2334139
:1058C00002910021CDE900110A460B4600F0B4F820
:1058D00003B000BDC1F30A5210B5C1F3130140F289
:1058E000FF3341F480119A4201DA002010BD40F2EA
:1058F00033439A42A2F2334203DC524200F06BF887
:1059000010BD904010BD00F0004230F000400AD0C1
:10591000C10D01F56071C0F3160042EA0151C208E1
:1059200040071143704700200146704730B5041E00
:1059300071F1000404DB4FF00044404264EB0101CC
:10594000141E73F1000405DB1C464FF00043524265
:1059500063EB04038B4208BF824230BD30B5041EA6
:1059600071F1000404DB4FF00044404264EB01019C
:10597000141E73F1000405DB1C464FF00043524235
:1059800063EB0403994208BF904230BD30B50B462B
:10599000014600202022012409E021FA02F59D425F
:1059A00005D303FA02F5491B04FA02F52844151E33
:1059B000A2F10102F1DC30BD202A04DB203A00FA1A
:1059C00002F1002070479140C2F1200320FA03F356
:1059D000194390407047202A04DB203A21FA02F054
:1059E0000021704721FA02F3D040C2F12002914019
:1059F000084319467047202A06DBCB17203A41FAA4
:105A000002F043EAE07306E041FA02F3D040C2F14B
:105A10002002914008431946704710B5141E73F1D7
:105A2000000408DA401C41F1000192185B411A435E
:105A300001D120F0010010BD2DE9F04D92469B46AA
:105A400011B1B1FA81F202E0B0FA80F22032904650
:105A5000FFF7B2FF04460F4640EA0A0041EA0B0195
:105A600053465A46084313D0114653EA010019D051
:105A7000C8F140025046FFF7AEFF05460E465046BD
:105A800059464246FFF798FF084305D0012004E03D
:105A900020463946BDE8F08D0020054346EAE07611
:105AA0002C4337430A986305E40AA0EB0800002260
:105AB000FD0A44EA47540A3002D500200146E9E7CE
:105AC000010510196941DDE9084500196941BDE882
:105AD000F04DA2E7C1F30A52C1F3130140F2FF33C4
